:100000000C947B000C943B0B0C94140B0C94A300ED
:100010000C94A3000C94A3000C94A3000C94A300D4
:100020000C94A3000C94A3000C94A3000C94BA0BA2
:100030000C94A3000C94A3000C94A3000C94A300B4
:100040000C94CA0A0C94A3000C94880B0C94620BB9
:100050000C94A3000C94A3000C94A3000C94A30094
:100060000C94AB090C94A30056686F6474652070FF
:100070007265646D657400332E205072696461741A
:1000800020626172767500322E20526573657400AD
:10009000312E205354415254000000000024002708
:1000A000002A0000000000250028002B00000000AE
:1000B0000800020100000304070000000000000027
:1000C00000000000002300260029000404040404AA
:1000D00004040402020202020203030303030301F5
:1000E00002040810204080010204081020010204CC
:1000F00008102000BB0C11241FBECFEFD8E0DEBFDC
:10010000CDBF11E0A0E0B1E0E4E0F8E202C005906C
:100110000D92A83CB107D9F725E0A8ECB1E001C0E9
:100120001D92AF37B207E1F710E0CBE7D0E004C093
:100130002197FE010E940812CA37D107C9F70E9411
:100140005C0D0C9400140C9400008F929F92AF925F
:10015000BF92FF920F931F93CF93DF93F0907203A0
:100160002BE02F1508F44CC02091740308E512E031
:10017000021B110927FD1395000F111F000F111FFE
:1001800020917303C8E8D0E0C21BD10927FDD395A5
:10019000CC0FDD1FCC0FDD1F4E010D2E000CAA0869
:1001A000BB089801012E000C440B550B2819390986
:1001B0004A095B09DC010E94781124EB30E040E041
:1001C00050E00E944E11820E931EA41EB51E8C1686
:1001D0009D062CF0E801801691060CF4E4012297AC
:1001E000CC0FDD1F2FB7F8948F2D90E0FC01EE0FA0
:1001F000FF1FE80FF91FE35BFC4FD283C1832FBFC2
:10020000DF91CF911F910F91FF90BF90AF909F9082
:100210008F90089580916B0590916C0525E0289F43
:10022000F001299FF00D1124DF01AB58BC4F14964B
:100230004C914423C1F018161906ACF40197EC5800
:10024000FC4F50E08F3F980771F0208130E02F5F26
:100250003F4F35972417350711F00197F3CF90934F
:100260006C0580936B05089520916B0530916C05AA
:1002700024363105E4F495E0929FF001939FF00D50
:100280001124EB58FC4F7183608353834283848332
:100290002F5F3F4F30936C0520936B0580916D0568
:1002A00090916E05019690936E0580936D0508956B
:1002B00020913C02260F3327331F21323105ECF405
:1002C00020916202FC0190E080E0243069F082E03D
:1002D0000895A0913C022191AC01465E5D4FA40FB0
:1002E000B52FB11D2C930196861798F380913C028F
:1002F000680F60933C0280E0089581E008950895BE
:1003000008950895E091110280911002E81730F4E9
:10031000F0E0E051FE4F808190E008958FEF9FEF75
:10032000089590911102809110022FEF3FEF9817DE
:1003300048F4E92FF0E0E051FE4F208130E09F5F6C
:1003400090931102C90108958091100290911102B9
:10035000891B990B0895CF92DF92EF92FF920F9332
:100360001F93CF93DF937C01CB018A012091EF0192
:10037000222389F0EB016B01C40ED51ECC15DD05DF
:1003800069F06991D701ED91FC910190F081E02D28
:10039000C7010995F3CF642F0E945801C801DF916E
:1003A000CF911F910F91FF90EF90DF90CF90089524
:1003B000CF93DF931F92CDB7DEB769832091EF0112
:1003C0002223F9F020911202203258F021E030E08F
:1003D000FC013383228390E080E00F90DF91CF9186
:1003E000089580911302E82FF0E0E153FE4F9981C8
:1003F00090838F5F809313028093120281E090E0DC
:10040000ECCF61E0CE0101960E945801F7CF833016
:1004100081F028F4813099F08230A9F00895873076
:10042000A9F08830C9F08430B1F4809180008F7DCC
:1004300003C0809180008F7780938000089584B5F9
:100440008F7784BD089584B58F7DFBCF8091B000F8
:100450008F778093B00008958091B0008F7DF9CFA1
:10046000CF93DF93282F30E0F901E355FF4F8491BC
:10047000F901E152FF4FD491F901E553FF4FC491C7
:10048000CC23A1F081110E940702EC2FF0E0EE0FC7
:10049000FF1FEF53FF4FA591B491EC91ED2381E045
:1004A00090E009F480E0DF91CF91089580E090E042
:1004B000FACF1F93CF93DF93282F30E0F901E35554
:1004C000FF4F8491F901E152FF4FD491F901E553B7
:1004D000FF4FC491CC23A9F0162F81110E9407026F
:1004E000EC2FF0E0EE0FFF1FED55FF4FA591B491FB
:1004F0008FB7F894EC91111108C0D095DE23DC93EE
:100500008FBFDF91CF911F910895DE2BF8CF10920E
:10051000620281E0809364021092630261E082E1F2
:100520000E94590261E083E10E945902E9EBF0E088
:1005300080818E7F808380818D7F808388E480931B
:10054000B80085E48093BC000895CF93DF9391E0D9
:10055000909319028823B9F0C091B800D091BA00E5
:100560008091BC008A7B8093BC0060E082E10E94A5
:10057000590260E083E10E9459020E948702D093F1
:10058000BA00C093B800DF91CF910895CF93DF9365
:1005900090E0FC01E152FF4F249185539F4FFC01F5
:1005A00084918823D1F090E0880F991FFC01E756D1
:1005B000FF4FA591B491FC01ED55FF4FC591D4912A
:1005C00061110EC09FB7F8948C91E22FE0958E23B5
:1005D0008C932881E223E8839FBFDF91CF91089518
:1005E0008FB7F894EC91E22BEC938FBFF6CF3FB727
:1005F000F8948091CB019091CC01A091CD01B09164
:10060000CE0126B5A89B05C02F3F19F00196A11D6C
:10061000B11D3FBFBA2FA92F982F8827BC01CD014C
:10062000620F711D811D911D42E0660F771F881FAB
:10063000991F4A95D1F708958F929F92AF92BF92DA
:10064000CF92DF92EF92FF924B015C010E94F70282
:100650006B017C010E94F7026C197D098E099F09CC
:10066000683E734081059105A8F321E0821A910844
:10067000A108B10888EEC80E83E0D81EE11CF11C69
:1006800081149104A104B10429F7FF90EF90DF9049
:10069000CF90BF90AF909F908F9008950895AF92A4
:1006A000BF92CF92DF92EF92FF920F931F93CF935F
:1006B000DF936C017B018B01040F151FEB015E01C1
:1006C000AE18BF08C017D10759F06991D601ED9156
:1006D000FC910190F081E02DC6010995892B79F7F5
:1006E000C501DF91CF911F910F91FF90EF90DF90A7
:1006F000CF90BF90AF900895FC01538D448D252F6E
:1007000030E0842F90E0821B930B541710F0CF96AB
:10071000089501970895FC01918D828D981761F0DD
:10072000A28DAE0FBF2FB11D5D968C91928D9F5FF4
:100730009F73928F90E008958FEF9FEF0895FC01D3
:10074000918D828D981731F0828DE80FF11D858D86
:1007500090E008958FEF9FEF0895FC01918D228D19
:10076000892F90E0805C9F4F821B91098F7399279E
:10077000089580EB92E00E94AD0321E0892B09F4FB
:1007800020E0822F089580E090E0892B29F00E94DC
:10079000B90381110C9400000895FC01A48DA80FE9
:1007A000B92FB11DA35ABF4F2C91848D90E00196B3
:1007B0008F739927848FA689B7892C93A089B189D3
:1007C0008C91837080648C93938D848D981306C074
:1007D0000288F389E02D80818F7D80830895EF92D8
:1007E000FF920F931F93CF93DF93EC0181E0888FEB
:1007F0009B8D8C8D98131AC0E889F989808185FFBB
:1008000015C09FB7F894EE89FF896083E889F9895C
:1008100080818370806480839FBF81E090E0DF915E
:10082000CF911F910F91FF90EF900895F62E0B8DB1
:1008300010E00F5F1F4F0F731127E02E8C8D8E116C
:100840000CC00FB607FCFACFE889F989808185FFD3
:10085000F5CFCE010E94CD03F1CFEB8DEC0FFD2F34
:10086000F11DE35AFF4FF0829FB7F8940B8FEA898E
:10087000FB8980818062CFCFCF93DF93EC01888D9D
:100880008823B9F0AA89BB89E889F9898C9185FD0B
:1008900003C0808186FD0DC00FB607FCF7CF8C9199
:1008A00085FFF2CF808185FFEDCFCE010E94CD0381
:1008B000E9CFDF91CF910895CF92DF92EF92FF922F
:1008C0000F931F93CF93DF93FC01C48121E020930A
:1008D000EF01C093C9011092130210921202838596
:1008E000682B84EA92E00E94D801D0911202D132A2
:1008F00008F092C00E94F7026B017C0180916202B5
:10090000811165C082E08093620281E0809364027D
:100910008FEF8093610210928602D0938502AFEC34
:10092000B1E0E5E6F2E080E0D81385C010928702DE
:1009300080918702CC0FC82BC093870280916302FD
:10094000813009F07CC0109263020E94F7026B01B3
:100950007C01809187028093BB0080911502909169
:100960001602A0911702B0911802892B8A2B8B2BAB
:1009700099F00E94F7020091150210911602209141
:100980001702309118026C197D098E099F0906170C
:10099000170728073907E0F18091BC0083FDD9CF04
:1009A00085EC8093BC000E94F7026B017C01809172
:1009B0006202823009F445C0809161028F3F61F18B
:1009C00080916102803241F18091610225C0809165
:1009D000150290911602A0911702B0911802892B6E
:1009E0008A2B8B2B09F48ACF0E94F7020091150203
:1009F0001091160220911702309118026C197D098E
:100A00008E099F09061717072807390708F076CFC0
:100A1000809114020E94A5021092130210921202F9
:100A20001092EF01DF91CF911F910F91FF90EF9006
:100A3000DF90CF9008959D9191938F5F75CF85EE54
:100A4000B0CF8091150290911602A0911702B0913B
:100A50001802892B8A2B8B2B09F4A9CF0E94F7024D
:100A60000091150210911602209117023091180280
:100A70006C197D098E099F09061717072807390782
:100A800008F095CFC5CF089590E080E0089580915B
:100A900004019091050126E0289FF001299FF00DA7
:100AA0001124EA57FD4F843091054CF411821082D5
:100AB000138212821582148201963696F4CF81E059
:100AC00090E090930501809304010895CF93DF9304
:100AD000C091A202D091A302C130D10581F46CE291
:100AE00071E080E090E00E941C030E940A011092D5
:100AF000A3021092A202D0930501C0930401DF91DA
:100B0000CF9108950F931F93CF938C01C62F0E940E
:100B10005C046C2F6460C8010E945C046C2F6B7FC6
:100B2000C8010E945C0483EC90E00197F1F7CF913B
:100B30001F910F9108950F931F93CF93DF938C0113
:100B4000D62FC42F607F642B0E94820580E1D89F3E
:100B5000B00111246C2BC801DF91CF911F910F912F
:100B60000C948205CF93DF93CDB7DEB728970FB6ED
:100B7000F894DEBF0FBECDBF98E0ECE0F1E0DE01FF
:100B8000119601900D929A95E1F79091780596173C
:100B900010F46FEF690F262F30E0220F331F41E072
:100BA00050E04C0F5D1F240F351FF9016081680F65
:100BB000606840E08FE695E028960FB6F894DEBFB7
:100BC0000FBECDBFDF91CF910C949B0540E061E05B
:100BD0008FE695E00E949B058BE39FE10197F1F77B
:100BE000089541E00E949B0581E090E008950F93F5
:100BF0001F93E7EEF0E06491E3EDF0E0E491F0E0C4
:100C0000EE0FFF1FEF53FF4F8591949100E412E424
:100C10002FE030E040E00E94760C611571058105FF
:100C2000910529F06F5F7F4F8F4F9F4F9F701F91EE
:100C30000F910895FB0101900020E9F73197AF0172
:100C4000461B570BDC01ED91FC910280F381E02DF6
:100C50000994CF93DF93BC0180EB92E00E941A06C7
:100C6000EC0164E471E080EB92E00E941A068C0FC4
:100C70009D1FDF91CF9108958F929F92AF92BF9267
:100C8000CF92DF92EF92FF920F931F93CF93DF9358
:100C9000CDB7DEB7A1970FB6F894DEBF0FBECDBFBC
:100CA0006B017C01F7FE43C06DE280EB92E00E9495
:100CB000EF038C0122273327A9012C193D094E0986
:100CC0005F0919A2CE0181967C019AE0892E912CB0
:100CD000A12CB12CCA01B901A50194010E94B71140
:100CE000605DF70162937F012115310541055105D2
:100CF00089F790E080E0309729F0BF0180EB92E027
:100D00000E941A06800F911FA1960FB6F894DEBFBD
:100D10000FBECDBFDF91CF911F910F91FF90EF904C
:100D2000DF90CF90BF90AF909F908F900895AC01CF
:100D30009B0119A28E010F5D1F4F8AE0C82ED12C96
:100D4000E12CF12CCA01B901A70196010E94B7114B
:100D5000605DF80162938F01211531054105510550
:100D600089F790E080E0309779F2BF0180EB92E064
:100D70000E941A06C9CF7F928F929F92AF92BF9224
:100D8000CF92DF92EF92FF920F931F93CF93DF9357
:100D900000D000D000D0CDB7DEB760E086E00E9482
:100DA000590260E087E00E94590261E086E00E94FB
:100DB000590261E087E00E94590260E086E00E94EB
:100DC000590261E087E00E9459028FB7F894809041
:100DD000880290908902A0908A02B0908B028FBF07
:100DE0008091A2029091A302892B09F07AC06CE253
:100DF00071E080E090E00E941C0380EA90E00E9495
:100E0000A5000E94E60596E0792E0E94F7057093F2
:100E1000A1026093A0020E94F70570939F02609365
:100E20009E020E94F7056B016091A0027091A102E1
:100E300000919E0210919F02809104019091050102
:100E40000197789EF001799EF00D1124E457FD4F33
:100E50007183608313830283D582C482072E000CC2
:100E6000880B990B0E943C06B801110F880B990B57
:100E70000E943C06B601DD0C880B990B0E943C06D3
:100E800086E491E00E9429062FB7F89480918802A9
:100E900090918902A0918A02B0918B022FBF88198C
:100EA0009909AA09BB09803D9740A105B10508F43D
:100EB000ACCF82E390E00E94A50026960FB6F8948E
:100EC000DEBF0FBECDBFDF91CF911F910F91FF907D
:100ED000EF90DF90CF90BF90AF909F908F907F90DA
:100EE00008950E94F7057093A1026093A0020E94EA
:100EF000F70570939F0260939E020E94F7056B01B5
:100F00006091A0027091A1027A83698300919E0290
:100F100010919F021C830B83DE82CD82072E000C72
:100F2000880B990B0E943C06B801110F880B990B96
:100F30000E943C06B601DD0C880B990B0E943C0612
:100F400086E491E00E94290670E060E086E0F82ED9
:100F5000DE011196F69EF001F79EF00D1124E45784
:100F6000FD4F30E020E0C901860F971FAD90BD9086
:100F700000811181650143E0C40ED11CC016D10669
:100F80003CF0A50142505109041715070CF095CF0C
:100F90002F5F3F4F38962330310529F762E070E02C
:100FA000892BB1F28FEF9FEF88CF0C941A0685ED55
:100FB0008093BC008091150290911602A0911702B7
:100FC000B09118020796A11DB11D23E0B695A79513
:100FD000979587952A95D1F72091BC0024FD03C0F1
:100FE000109262020895409115025091160260918C
:100FF000170270911802452B462B472B69F3009777
:10100000A105B10541F025E32A95F1F7000001970C
:10101000A109B109E1CF809114020C94A5020F93AC
:101020001F93CF93DF93EC0188819981009759F04A
:101030002A813B812617370730F081E0DF91CF917D
:101040001F910F9108958B016F5F7F4F0E943313A3
:10105000009759F0998388831B830A832C813D81F3
:10106000232B59F7FC011082E8CF80E0E7CF8F9265
:101070009F92AF92BF92CF92DF92EF92FF920F9327
:101080001F93CF93DF9300D0CDB7DEB7009779F1F0
:101090008B017C010E9445114C01D12CC12CC8143C
:1010A000D9042CF5F701EC0DFD1DE491E9831A82BA
:1010B000F801A480B580FFEFAF1ABF0AB501C801DF
:1010C0000E940F08882379F0F80120813181848102
:1010D0009581BE016F5F7F4F820F931F0E94F913AE
:1010E000F801B582A482FFEFCF1ADF0AD8CF0F90A4
:1010F0000F90DF91CF911F910F91FF90EF90DF90B4
:10110000CF90BF90AF909F908F900895CF92DF9235
:10111000EF92FF920F931F93CF93DF9300D000D0F5
:1011200000D0CDB7DEB787E491E00E94290605E73D
:1011300013E0F12CE12C80916D0590916E05E8167D
:10114000F9060CF067C0D12CC12CF80184818C15F4
:101150001D0459F054F06DE471E080EB92E00E94C0
:10116000D507FFEFCF1ADF0AF0CFC080D1801A82F7
:1011700019821C821B821E821D8270E060E0CE01FB
:1011800001960E940F0829813A8181113BC02115E7
:10119000310519F0C9010E94AA121A8219821E8211
:1011A0001D821C821B82BE016F5F7F4FC6010E94A1
:1011B00037084D815E8169817A8180EB92E00E94DF
:1011C0004F0360E571E080EB92E00E94D507F801E3
:1011D00062817381072E000C880B990B0E943C06DC
:1011E00064E471E080EB92E00E941A0689819A81A2
:1011F000009711F00E94AA12FFEFEF1AFF0A0B5F8F
:101200001F4F99CF1E821D8266E471E0C9010E94C2
:10121000F913C9CF26960FB6F894DEBF0FBECDBF27
:10122000DF91CF911F910F91FF90EF90DF90CF90C2
:1012300008950F931F93CF93DF9300D000D000D079
:10124000CDB7DEB78C0183E591E00E9429061A82B2
:1012500019821C821B821E821D8270E060E0CE011A
:1012600001960E940F0829813A8181116CC02115D5
:10127000310519F0C9010E94AA121A8219821E8230
:101280001D821C821B82BE016F5F7F4FC8010E94BE
:10129000370860E080E00E94B20560E671E08FE60A
:1012A00095E00E94D5076D817E8184E190E00E94E7
:1012B000F411862F61E08F5F0E94B2054D815E813F
:1012C00069817A818FE695E00E944F0362E080E0B9
:1012D0000E94B20560E671E08FE695E00E94D507B6
:1012E00063E084E00E94B20541E06FE78FE695E09D
:1012F0000E949B056EE471E08FE695E00E94D507A1
:1013000041E06EE78FE695E00E949B056DE471E099
:101310008FE695E00E94D50765E771E08FE695E0DE
:101320000E94D50789819A81009711F00E94AA1224
:1013300026960FB6F894DEBF0FBECDBFDF91CF91DA
:101340001F910F9108951E821D8266E471E0C9010C
:101350000E94F91398CF1F920F920FB60F9211248B
:101360002F933F934F935F936F937F938F939F93AD
:10137000AF93BF93EF93FF938091B900887F80363E
:1013800009F44AC0F0F5883209F4A7C018F5803195
:1013900009F49BC0B8F4882309F4F9C0883009F433
:1013A00094C0FF91EF91BF91AF919F918F917F91E9
:1013B0006F915F914F913F912F910F900FBE0F90C2
:1013C0001F901895883109F488C0803251F78093B6
:1013D000610214C0803409F49DC040F48033B9F335
:1013E0008833F9F68093610285ECB0C0803509F44A
:1013F00085C0883509F496C0883499F60E94D707CD
:10140000D0CF883909F48CC038F5883729F050F4EA
:10141000883611F0803729F683E0809362021092BB
:10142000600257C0883809F47BC0803919F08038D1
:1014300009F0B7CF80916002803208F071C0E0916E
:10144000600281E08E0F809360028091BB00F0E02B
:10145000E05CFD4F80833DC0803B39F0E0F4803A92
:1014600009F479C0883A09F09CCF84E08093620245
:1014700010923D0210923C02E0913A02F0913B0240
:10148000099580913C0281110FC081E080933C025C
:1014900010921A0209C0803C09F4A6CF883C09F4D6
:1014A000A3CF883B09F07DCFE0913D0281E08E0F14
:1014B00080933D02F0E0E65EFD4F80818093BB00AB
:1014C00090913D0280913C0229C0809187028093D7
:1014D000BB0085EC8093BC0064CF90918602809124
:1014E0008502981758F5E091860281E08E0F80936F
:1014F0008602F0E0EB59FD4F8081E9CFE091860252
:1015000081E08E0F809386028091BB00F0E0EB5962
:10151000FD4F808390918602809185029817C8F2D2
:1015200085E8D8CFE091860281E08E0F8093860215
:101530008091BB00F0E0EB59FD4F80838091640205
:1015400081115CCF81E08093630284EA8093BC00C8
:101550001092620226CF85EC8093BC00109262024A
:1015600080916002803230F4E0916002F0E0E05C53
:10157000FD4F10826091600270E0E0913E02F091B8
:101580003F0280E492E00995109260020ACF109227
:10159000610234CF1F920F920FB60F9211242F9336
:1015A0003F938F939F93AF93BF93809188029091C5
:1015B0008902A0918A02B0918B023091CA0123E086
:1015C000230F2D3758F50196A11DB11D2093CA0197
:1015D0008093880290938902A0938A02B0938B0231
:1015E0008091CB019091CC01A091CD01B091CE0121
:1015F0000196A11DB11D8093CB019093CC01A093C6
:10160000CD01B093CE01BF91AF919F918F913F914A
:101610002F910F900FBE0F901F90189526E8230F63
:101620000296A11DB11DD2CF1F920F920FB60F923D
:1016300011242F933F934F935F936F937F938F93D7
:101640009F93AF93BF93EF93FF93E0910201F091CB
:1016500003010995FF91EF91BF91AF919F918F91F8
:101660007F916F915F914F913F912F910F900FBE9E
:101670000F901F9018951F920F920FB60F92112482
:101680002F933F934F935F936F937F938F939F938A
:10169000AF93BF93EF93FF93E0910001F0910101AD
:1016A0000995FF91EF91BF91AF919F918F917F919C
:1016B0006F915F914F913F912F910F900FBE0F90BF
:1016C0001F9018951F920F920FB60F9211242F930F
:1016D0003F934F935F936F937F938F939F93AF93BA
:1016E000BF93EF93FF9380EB92E00E94CD03FF91B5
:1016F000EF91BF91AF919F918F917F916F915F918A
:101700004F913F912F910F900FBE0F901F90189502
:101710001F920F920FB60F9211242F938F939F93C6
:10172000EF93FF93E091C002F091C1028081E091BC
:10173000C602F091C70282FD1BC090818091C90250
:101740008F5F8F732091CA02821741F0E091C90226
:10175000F0E0E055FD4F958F8093C902FF91EF9126
:101760009F918F912F910F900FBE0F901F90189502
:101770008081F4CF1F920F920FB60F9211242F93F6
:101780003F934F935F936F937F938F939F93AF9309
:10179000BF93CF93DF93EF93FF938091C801C091E4
:1017A0007103D0E087FF24C010928500109284005E
:1017B0008091C8018F5F8093C8018091C801082E75
:1017C000000C990B8C179D0724F48091C8018C3074
:1017D000C4F18091840090918500049680349C49E6
:1017E00008F47AC08091840090918500049676C0B8
:1017F0008091C801082E000C990B8C179D07C4F628
:10180000E091C8018E2FEE0F990BFC01EE0FFF1F28
:10181000E80FF91FE35BFC4F808186FFC9CFE091A1
:10182000C8018E2FEE0F990BFC01EE0FFF1FE80F82
:10183000F91FE35BFC4F808160E08F730E945902C7
:10184000B7CF2091840030918500E091C8018E2FA0
:10185000EE0F990BFC01EE0FFF1FE80FF91FE35B82
:10186000FC4F81819281820F931F90938900809316
:101870008800E091C8018E2FEE0F990BFC01EE0F4E
:10188000FF1FE80FF91FE35BFC4F808186FF11C04B
:10189000E091C8018E2FEE0F990BFC01EE0FFF1F98
:1018A000E80FF91FE35BFC4F808161E08F730E94BA
:1018B0005902FF91EF91DF91CF91BF91AF919F912D
:1018C0008F917F916F915F914F913F912F910F90E9
:1018D0000FBE0F901F90189580E49CE990938900AB
:1018E000809388008FEF8093C801E3CFCF92DF927F
:1018F000EF92FF920F931F93E82FF92F05C001502D
:1019000011092109310961F1908196239417B9F3E6
:1019100005C0015011092109310911F19081962367
:101920009413F7CFC12CD12CE12CF12C0AC08FEFEE
:10193000C81AD80AE80AF80A0C151D052E053F0535
:1019400079F080818623841791F36C2D7D2D8E2D67
:101950009F2D1F910F91FF90EF90DF90CF900895F2
:1019600060E070E080E090E01F910F91FF90EF90B9
:10197000DF90CF9008951092A7021092A60288EEF1
:1019800093E0A0E0B0E08093A8029093A902A09316
:10199000AA02B093AB0228E131E03093A502209374
:1019A000A4021092B3021092B2028093B4029093F8
:1019B000B502A093B602B093B7028AE291E0909389
:1019C000B1028093B00285EC90E09093BD028093C9
:1019D000BC0284EC90E09093BF028093BE0280EC46
:1019E00090E09093C1028093C00281EC90E09093CC
:1019F000C3028093C20282EC90E09093C502809370
:101A0000C40286EC90E09093C7028093C6021092C5
:101A1000C9021092CA021092CB021092CC0210920C
:101A20007205109271058CE391E09093700580939C
:101A30006F0587E28093730584E18093770584E0E6
:101A4000809378051092790588E080937A05E5E720
:101A5000F3E086E491E09183808313821282148202
:101A6000359625E0E936F207B1F710926C05109231
:101A70006B0510926A051092690510926E0510921E
:101A80006D05809171038C3098F491E0980F9093DC
:101A900071038093720390E0FC01EE0FFF1FE80FCB
:101AA000F91FE35BFC4F88EB9BE0928381830895F1
:101AB0008FEF809372030895CF93DF9300D000D00F
:101AC00000D0CDB7DEB7789484B5826084BD84B58C
:101AD000816084BD85B5826085BD85B5816085BD29
:101AE00080916E00816080936E00109281008091E1
:101AF0008100826080938100809181008160809369
:101B00008100809180008160809380008091B1008D
:101B100084608093B1008091B00081608093B000B8
:101B200080917A00846080937A0080917A0082604C
:101B300080937A0080917A00816080937A0080910E
:101B40007A00806880937A001092C10061E084E09E
:101B50000E94C60261E085E00E94C60261E086E064
:101B60000E94C60261E087E00E94C60260E088E051
:101B70000E94C60260E08AE00E94C60260E082E045
:101B80000E94C602809172038C3008F051C061E05F
:101B900089E00E94C60280917203282F30E0F9018B
:101BA000EE0FFF1FE20FF31FE35BFC4F9081907C71
:101BB0009960908310927303109274032CE0622F4B
:101BC0000E94E811829FB001112430E020E0AB01B7
:101BD000420F531FFA01EE0FFF1FE40FF51FE35BE7
:101BE000FC4F908196FD16C02F5F3F4F2C30310582
:101BF00071F781110FC01092800082E08093810004
:101C00001092850010928400B19A80916F008260DA
:101C100080936F00E09172038E2F90E0FC01EE0F35
:101C2000FF1FE80FF91FE35BFC4F80818064808316
:101C300082E390E00E94A50061E084E00E945902E6
:101C400060E085E00E945902109211021092100289
:101C500010921302109212020E9487028FE791E005
:101C600090933B0280933A0280E891E090933F0288
:101C700080933E021092740580917805823018F0AE
:101C800098E09093740590917905992339F081300B
:101C900029F48091740584608093740562E370E098
:101CA00080E090E00E941C0360917A058FE695E049
:101CB0000E945C0468EE73E080E090E00E941C03E8
:101CC00060E38FE695E00E9482050BE416E4C8010C
:101CD0000197F1F760E38FE695E00E948205C80165
:101CE0000197F1F760E38FE695E00E94820583E5B6
:101CF00092E00197F1F760E28FE695E00E9482059D
:101D000060917405606240E08FE695E00E949B055B
:101D100084E08093750540E06CE08FE695E00E94DA
:101D20009B050E94E60512E01093760540E066E010
:101D30008FE695E00E949B0540E062E08FE695E02B
:101D40000E949B058BE39FE10197F1F788E0809368
:101D50007A0560E08FE695E00E945C040E94E6054B
:101D600060E080E00E94B20560E671E08FE695E0F9
:101D70000E94D50761E080E00E94B20560E871E052
:101D80008FE695E00E94D50762E080E00E94B205F0
:101D900060E671E08FE695E00E94D50764EF71E0A0
:101DA00080E090E00E941C030E94E60550E040E0C5
:101DB00060E970E090E080E00E94340141E050E092
:101DC00067E870E090E080E00E94340142E050E07B
:101DD00067E770E090E080E00E94340143E050E06B
:101DE00068E670E081E090E00E94340110926C059A
:101DF00010926B05E0907503F09076030E948608C0
:101E0000C7010E941909E091C002F091C10210833C
:101E1000E091BC02F091BD021082E091BE02F0910F
:101E2000BF028FEC80831092C802E091C402F0914F
:101E3000C50286E08083E091C202F091C3028081F6
:101E400080618083E091C202F091C302808188604A
:101E50008083E091C202F091C30280818068808318
:101E6000E091C202F091C30280818F7D808386E67B
:101E700095E0909303018093020180916900837F34
:101E8000846080936900E99ABEE92B2EB2E03B2E74
:101E90002E0127E0420E511C10E0812E10E0912E01
:101EA00001E010E08091A2029091A302892B09F039
:101EB000F2C08AE00E9430027C0182E00E9430027F
:101EC0005C0183E00E943002AA94AB2809F0BFC1F4
:101ED00083E991E00E94290668EC70E080E090E0E0
:101EE0000E941C030E94E605EA94EF2809F0B8C19D
:101EF0008AE991E00E94290668EC70E080E090E0B9
:101F00000E941C030E94E6050E94860880916B05D2
:101F100090916C05019620916D0530916E058217A8
:101F200093070CF061C0E5E0E89F9001E99F300D58
:101F30001124F901EB58FC4F448120593C4FF90121
:101F4000248130E02F5F3F4F4217130609F04CC049
:101F500090936C0580936B05A3E0EA2EF12C772417
:101F6000739480916B0590916C0525E0289FF0019A
:101F7000299FF00D1124EB58FC4FA280B380808183
:101F800091810E94190943E0E416F10449F47110AB
:101F900007C0A114B10469F183E0A816B104B1F13E
:101FA0008114910409F47ECF0E94B903882309F4B7
:101FB00079CF0E94000076CF01961596821793077D
:101FC0007CF419965C9119974481541748F0541386
:101FD000F3CF8F3F980781F390936C0580936B0547
:101FE000EE24E394F12C03C0F3E0EF2EF12C712CDE
:101FF000B8CF6CE271E080E090E00E941C030E9488
:10200000E6051093A3020093A202CACF8091A20218
:102010009091A302892B21F668EC70E080E090E0BB
:102020000E941C030E94E605609104017091050165
:10203000072E000C880B990B0E943C0664E471E0AB
:1020400080EB92E00E941A068091040190910501B4
:102050008430910559F41093A3020093A2020E94C8
:10206000470510930501009304019ACF039739F4B3
:102070001093A3020093A2020E94470591CF0E94F1
:10208000BB06809104019091050101969093050192
:102090008093040185CF7CE8E72E72E0F72E57018C
:1020A000712C612CF501619171915F01072E000C7B
:1020B000880B990B0E943C0663E771E080EB92E08D
:1020C0000E94D507FFEF6F1A7F0A23E062167104A2
:1020D00049F783E791E00E94290646E0E40EF11CEF
:1020E0002E143F04E1F681E791E00E94290668EE94
:1020F00073E080E090E00E941C0380EA90E00E9480
:10210000A5008FB7F894C0908802D0908902E09023
:102110008A02F0908B028FBF1A8219821C821B8266
:102120001E821D820E94BB06009709F07EC0898135
:102130009A8101969A8389832FB7F89480918802B7
:1021400090918902A0918A02B0918B022FBF8C19C5
:102150009D09AE09BF09803D9740A105B10510F367
:1021600049815A81CA0157FF02C090E080E02B816B
:102170003C81F12CE12C8217930724F4C901EE2451
:10218000E394F12C6D817E81861797071CF492E011
:10219000E92EF12C483051054CF42830310534F447
:1021A000683071051CF4EE24EA94FE2CCE010196F1
:1021B0005C01F501619171915F01072E000C880BA4
:1021C000990B0E943C0661EA71E080EB92E00E946C
:1021D000D5074A145B0469F786E491E00E9429065A
:1021E0000E94E6056DEA71E0F1E0EF16F10461F09E
:1021F00065EB71E022E0E216F10431F065EA71E08E
:10220000EF2811F06DEB71E08FE695E00E94D507A5
:1022100082E390E00E94A50060ED77E080E090E02E
:102220000E941C030E94E605BBCE8130910531F46B
:102230008B819C8101969C838B837ECF029709F0D2
:102240007BCF8D819E8101969E838D8375CFEA948D
:10225000EF2809F44DCE0E948608F12CE12CC7CE60
:102260000E94860880916B0590916C0520916D0508
:1022700030916E0545E0489FF001499FF00D112413
:10228000EB58FC4F0196DF0199CEFC010590002030
:10229000E9F7809590958E0F9F1F0895052E97FB67
:1022A0001EF400940E94651157FD07D00E94B711DB
:1022B00007FC03D04EF40C94651150954095309571
:1022C00021953F4F4F4F5F4F0895909580957095A2
:1022D00061957F4F8F4F9F4F08950E94D911A59F01
:1022E000900DB49F900DA49F800D911D1124089511
:1022F000B7FF0C946D110E946D11821B930B089512
:102300002F923F924F925F926F927F928F929F9205
:10231000AF92BF92CF92DF92EF92FF920F931F93F3
:10232000CF93DF93CDB7DEB7CA1BDB0B0FB6F894A4
:10233000DEBF0FBECDBF09942A88398848885F84E4
:102340006E847D848C849B84AA84B984C884DF8055
:10235000EE80FD800C811B81AA81B981CE0FD11D39
:102360000FB6F894DEBF0FBECDBFED010895A1E218
:102370001A2EAA1BBB1BFD010DC0AA1FBB1FEE1FFF
:10238000FF1FA217B307E407F50720F0A21BB30B4A
:10239000E40BF50B661F771F881F991F1A9469F7C6
:1023A00060957095809590959B01AC01BD01CF0122
:1023B0000895A29FB001B39FC001A39F700D811D1E
:1023C0001124911DB29F700D811D1124911D08953E
:1023D000991B79E004C0991F961708F0961B881F77
:1023E0007A95C9F780950895AA1BBB1B51E107C0D8
:1023F000AA1FBB1FA617B70710F0A61BB70B881F95
:10240000991F5A95A9F780959095BC01CD01089523
:10241000EE0FFF1F0590F491E02D09940F931F9389
:10242000CF93DF938230910510F482E090E0E09149
:102430007D05F0917E0530E020E0B0E0A0E030972F
:1024400099F42115310509F44AC0281B390B2430B1
:102450003105D8F58A819B816115710589F1FB01F0
:1024600093838283FE0111C04081518102811381D7
:1024700048175907E0F04817590799F4109761F089
:1024800012960C93129713961C933296CF01DF91FC
:10249000CF911F910F91089500937D0510937E05B4
:1024A000F4CF2115310551F04217530738F0A90137
:1024B000DB019A01BD01DF01F801C1CFEF01F9CFC6
:1024C00090937E0580937D05CDCFFE01E20FF31F33
:1024D000819391932250310939832883D7CF20915A
:1024E0007B0530917C05232B41F42091080130912C
:1024F000090130937C0520937B05209106013091E2
:1025000007012115310541F42DB73EB740910A016D
:1025100050910B01241B350BE0917B05F0917C055C
:10252000E217F307A0F42E1B3F0B2817390778F0AA
:10253000AC014E5F5F4F2417350748F04E0F5F1F09
:1025400050937C0540937B05819391939FCFF0E05E
:10255000E0E09CCFCF93DF930097E9F0FC01329746
:1025600013821282A0917D05B0917E05ED0130E0CD
:1025700020E01097A1F420813181820F931F2091D8
:102580007B0530917C052817390709F061C0F0936D
:102590007C05E0937B05DF91CF910895EA01CE178A
:1025A000DF07E8F54A815B819E0141155105B1F7CE
:1025B000E901FB83EA8349915991C40FD51FEC17B8
:1025C000FD0761F4808191810296840F951FE901D6
:1025D00099838883828193819B838A83F0E0E0E002
:1025E00012968D919C9113970097B9F52D913C917E
:1025F0001197CD010296820F931F20917B05309198
:102600007C052817390739F6309751F510927E0569
:1026100010927D05B0937C05A0937B05BCCFD3833E
:10262000C28340815181840F951FC817D90761F477
:102630004E5F5F4F88819981480F591F51834083B6
:102640008A819B81938382832115310509F0B0CF64
:10265000F0937E05E0937D059ECFFD01DC01C0CFA8
:1026600013821282D7CFB0E0A0E0E9E3F3E10C944B
:1026700082118C01009751F4CB010E940E128C0143
:10268000C801CDB7DEB7E0E10C949E11FC01E60F66
:10269000F71F9C0122503109E217F30708F49DC08F
:1026A000D901CD91DC911197C617D70798F0C530A5
:1026B000D10530F3CE0104978617970708F3C61BA0
:1026C000D70B2297C193D1936D937C93CF010E9436
:1026D000AA12D6CF5B01AC1ABD0A4C018C0E9D1E0E
:1026E000A0917D05B0917E05512C412CF12CE12C5F
:1026F000109731F580917B0590917C05881599059F
:1027000009F05CC04616570608F058C080910601D3
:1027100090910701009741F48DB79EB740910A014F
:1027200050910B01841B950BE817F90708F055C071
:10273000F0937C05E0937B05F90171836083A0CF62
:102740008D919C91119712966C90129713967C9094
:102750001397A815B90559F56C0142E0C40ED11CB8
:10276000CA14DB0420F1AC014A195B09DA011296A4
:10277000159780F06282738251834083D9016D93F3
:102780007C93E114F10471F0D7011396FC93EE935E
:10279000129776CF22968C0F9D1FF901918380832B
:1027A000F301EFCFF0937E05E0937D0569CF4816E6
:1027B000590608F42C017D01D3019ACFCB010E9468
:1027C0000E127C01009749F0AE01B8010E94F0138F
:1027D000C8010E94AA12870153CF10E000E050CF39
:1027E000FB01DC0102C001900D9241505040D8F72E
:1027F0000895FB01DC0101900D920020E1F708959E
:04280000F894FFCF7A
:102804004E034E03010000007F05800000004000DD
:102814001400540000000000D801AB0144058101FC
:10282400A4019101820100000000EF034F037C0327
:102834003C04AD038B039F0300000000F1054F032C
:10284400440543050D0A006D656E753A00202000AD
:102854002C20007072696E742066756E6B6365005F
:102864002D2D2D2D2D2D2D2D2D2D2D2D2D2D2D2D94
:102874002D2D2D2D00456E7465722F4578697400D9
:10288400202041726475696E6F20547269646963B3
:102894006B610076616C3232320076616C313131B9
:1028A40000202D2000426172766120310042617265
:1028B400766120320042617276612033004A696E8B
:0828C40061206261727661007F
:00000001FF
