:100000000C947B000C94060C0C94DF0B0C94A30056
:100010000C94A3000C94A3000C94A3000C94A300D4
:100020000C94A3000C94A3000C94A3000C94850CD6
:100030000C94A3000C94A3000C94A3000C94A300B4
:100040000C94950B0C94A3000C94530C0C942D0C55
:100050000C94A3000C94A3000C94A3000C94A30094
:100060000C94760A0C94A30056686F647465207033
:100070007265646D657400332E205072696461741A
:1000800020626172767500322E20526573657400AD
:10009000312E205354415254000000000024002708
:1000A000002A0000000000250028002B00000000AE
:1000B0000800020100000304070000000000000027
:1000C00000000000002300260029000404040404AA
:1000D00004040402020202020203030303030301F5
:1000E00002040810204080010204081020010204CC
:1000F00008102000860D11241FBECFEFD8E0DEBF10
:10010000CDBF11E0A0E0B1E0EEEBFCE202C0059053
:100110000D92AA3BB107D9F725E0AAEBB1E001C0E7
:100120001D92A83EB207E1F710E0CBE7D0E004C093
:100130002197FE010E946514CA37D107C9F70E94B2
:10014000140F0C945D160C9400008F929F92AF9246
:10015000BF92FF920F931F93CF93DF93F0906703AB
:100160002BE02F1508F44CC02091690308E512E03C
:10017000021B110927FD1395000F111F000F111FFE
:1001800020916803C8E8D0E0C21BD10927FDD395B0
:10019000CC0FDD1FCC0FDD1F4E010D2E000CAA0869
:1001A000BB089801012E000C440B550B2819390986
:1001B0004A095B09DC010E94D51324EB30E040E0E2
:1001C00050E00E94AB13820E931EA41EB51E8C1627
:1001D0009D062CF0E801801691060CF4E4012297AC
:1001E000CC0FDD1F2FB7F8948F2D90E0FC01EE0FA0
:1001F000FF1FE80FF91FEE5BFC4FD283C1832FBFB7
:10020000DF91CF911F910F91FF90BF90AF909F9082
:100210008F900895809160059091610525E0289F59
:10022000F001299FF00D1124DF01A659BC4F14964F
:100230004C914423C1F018161906ACF40197E75904
:10024000FC4F50E08F3F980771F0208130E02F5F26
:100250003F4F35972417350711F00197F3CF90934F
:1002600061058093600508952091600530916105D6
:1002700024363105E4F495E0929FF001939FF00D50
:100280001124E659FC4F7183608353834283848336
:100290002F5F3F4F30936105209360058091620589
:1002A000909163050196909363058093620508958C
:1002B00020913502260F3327331F21323105ECF40C
:1002C00020915B02FC0190E080E0243069F082E044
:1002D0000895A09135022191AC014D5E5D4FA40FB0
:1002E000B52FB11D2C930196861798F38091350296
:1002F000680F6093350280E0089581E008950895C5
:1003000008950895E0910A0280910902E81730F4F7
:10031000F0E0E751FE4F808190E008958FEF9FEF6E
:10032000089590910A02809109022FEF3FEF9817EC
:1003300048F4E92FF0E0E751FE4F208130E09F5F65
:1003400090930A02C90108958091090290910A02CE
:10035000891B990B0895CF92DF92EF92FF920F9332
:100360001F93CF93DF937C01CB018A012091E80199
:10037000222389F0EB016B01C40ED51ECC15DD05DF
:1003800069F06991D701ED91FC910190F081E02D28
:10039000C7010995F3CF642F0E945801C801DF916E
:1003A000CF911F910F91FF90EF90DF90CF90089524
:1003B000CF93DF931F92CDB7DEB769832091E80119
:1003C0002223F9F020910B02203258F021E030E096
:1003D000FC013383228390E080E00F90DF91CF9186
:1003E000089580910C02E82FF0E0E853FE4F9981C8
:1003F00090838F5F80930C0280930B0281E090E0EA
:10040000ECCF61E0CE0101960E945801F7CF833016
:1004100081F028F4813099F08230A9F00895873076
:10042000A9F08830C9F08430B1F4809180008F7DCC
:1004300003C0809180008F7780938000089584B5F9
:100440008F7784BD089584B58F7DFBCF8091B000F8
:100450008F778093B00008958091B0008F7DF9CFA1
:100460001F93CF93DF93282F30E0F901E355FF4F1F
:100470008491F901E152FF4FD491F901E553FF4F07
:10048000C491CC23A9F0162F81110E940702EC2FF2
:10049000F0E0EE0FFF1FED55FF4FA591B4918FB720
:1004A000F894EC91111108C0D095DE23DC938FBF36
:1004B000DF91CF911F910895DE2BF8CF10925B0250
:1004C00081E080935D0210925C0261E082E10E9413
:1004D000300261E083E10E943002E9EBF0E08081CC
:1004E0008E7F808380818D7F808388E48093B800B5
:1004F00085E48093BC000895CF93DF9391E09093BF
:1005000012028823B9F0C091B800D091BA0080914E
:10051000BC008A7B8093BC0060E082E10E943002D4
:1005200060E083E10E9430020E945E02D093BA0034
:10053000C093B800DF91CF910895CF93DF9390E0FF
:10054000FC01E152FF4F249185539F4FFC018491A0
:100550008823C9F090E0880F991FFC01E756FF4FF0
:10056000A591B491FC01ED55FF4FC591D491611156
:100570000DC09FB7F8948C91209582238C9388812D
:10058000282328839FBFDF91CF910895623051F4D3
:100590009FB7F8943C91822F809583238C93E881B8
:1005A0002E2BEFCF8FB7F894EC912E2B2C938FBF7F
:1005B000EACF3FB7F8948091C4019091C501A09112
:1005C000C601B091C70126B5A89B05C02F3F19F001
:1005D0000196A11DB11D3FBFBA2FA92F982F8827C3
:1005E000BC01CD01620F711D811D911D42E0660F9E
:1005F000771F881F991F4A95D1F708958F929F9270
:10060000AF92BF92CF92DF92EF92FF924B015C01CB
:100610000E94D9026B017C010E94D9026C197D09EC
:100620008E099F09683E734081059105A8F321E07A
:10063000821A9108A108B10888EEC80E83E0D81E7E
:10064000E11CF11C81149104A104B10429F7FF906D
:10065000EF90DF90CF90BF90AF909F908F900895D4
:100660002FB7F8946091C0017091C1018091C201CF
:100670009091C3012FBF089581E090E0909398027C
:1006800080939702089583E090E09093BE01809359
:10069000BD01089584E090E09093BE018093BD0178
:1006A000089581E090E09093BE018093BD0108958C
:1006B0000895AF92BF92CF92DF92EF92FF920F9385
:1006C0001F93CF93DF936C017B018B01040F151FE8
:1006D000EB015E01AE18BF08C017D10759F0699150
:1006E000D601ED91FC910190F081E02DC6010995B4
:1006F000892B79F7C501DF91CF911F910F91FF9061
:10070000EF90DF90CF90BF90AF900895FC01538D94
:10071000448D252F30E0842F90E0821B930B5417DB
:1007200010F0CF96089501970895FC01918D828D68
:10073000981761F0A28DAE0FBF2FB11D5D968C9101
:10074000928D9F5F9F73928F90E008958FEF9FEF40
:100750000895FC01918D828D981731F0828DE80FFC
:10076000F11D858D90E008958FEF9FEF0895FC01B6
:10077000918D228D892F90E0805C9F4F821B910983
:100780008F739927089585EA92E00E94B70321E0CC
:10079000892B09F420E0822F089580E090E0892BD6
:1007A00029F00E94C30381110C9400000895FC01FC
:1007B000A48DA80FB92FB11DA35ABF4F2C91848DC2
:1007C00090E001968F739927848FA689B7892C931F
:1007D000A089B1898C91837080648C93938D848D72
:1007E000981306C00288F389E02D80818F7D808375
:1007F0000895EF92FF920F931F93CF93DF93EC0135
:1008000081E0888F9B8D8C8D98131AC0E889F989B7
:10081000808185FF15C09FB7F894EE89FF896083BA
:10082000E889F98980818370806480839FBF81E03B
:1008300090E0DF91CF911F910F91FF90EF9008957D
:10084000F62E0B8D10E00F5F1F4F0F731127E02E58
:100850008C8D8E110CC00FB607FCFACFE889F98990
:10086000808185FFF5CFCE010E94D703F1CFEB8DBC
:10087000EC0FFD2FF11DE35AFF4FF0829FB7F89464
:100880000B8FEA89FB8980818062CFCFCF93DF9382
:10089000EC01888D8823B9F0AA89BB89E889F98998
:1008A0008C9185FD03C0808186FD0DC00FB607FCCD
:1008B000F7CF8C9185FFF2CF808185FFEDCFCE0100
:1008C0000E94D703E9CFDF91CF9108958F929F9235
:1008D000AF92BF92EF92FF920F931F93CF93DF934C
:1008E000FC012081318137FD6AC0EC013327F90119
:1008F000E355FF4F8491F901E152FF4F0491F90153
:10090000E553FF4F14911123A1F181110E940702B9
:10091000E12FF0E0EE0FFF1FEF53FF4FA591B491D1
:10092000EC910E2391E080E009F490E0092F182F5C
:10093000E884F9840E9430034B015C018AA99BA9D9
:10094000ACA9BDA9B501A401481B590B6A0B7B0BCF
:100950008EA59FA58230910509F478C06CF40097AC
:10096000F9F081309105B1F199AB88AB1FA61EA6B5
:1009700026C010E000E0DCCF8630910509F4CAC043
:100980008730910509F4E5C08330910569F7E016D9
:10099000F10609F07AC099AB88AB81E090E031C0F4
:1009A000E016F10661F419AA18AA81E090E09FA769
:1009B0008EA78AAA9BAAACAABDAA1FAA1EAADF91CB
:1009C000CF911F910F91FF90EF90BF90AF909F90AC
:1009D0008F900895E016F106D9F00A811B8130E06E
:1009E00020E0401751076207730738F428A939A996
:1009F00099AB88AB3FA72EA7E2CF99AB88AB82E03B
:100A000090E09FA78EA78AAA9BAAACAABDAAD7CF1F
:100A10008E819F81B0E0A0E084179507A607B707F5
:100A200070F6EC8DFD8D309709F00995EE8DFF8DF8
:100A3000309719F088A199A109958EA59FA599AB2A
:100A400088AB86E090E09FA78EA7B9CF8A809B8075
:100A5000B12CA12CE016F10689F4481559056A0558
:100A60007B0520F28EA99FA901969FAB8EAB82E0F9
:100A700090E099AB88AB83E090E0E5CF481559054D
:100A80006A057B0508F49BCFEDCF8EA99FA90C8149
:100A90001D8130E020E0041715072607370730F0E6
:100AA00028AD39AD2817390709F089CF8130910574
:100AB000B9F4EA85FB85309709F00995EC85FD8549
:100AC000309719F08E859F8509951FA61EA619AA35
:100AD00018AA1FAA1EAA1AAA1BAA1CAA1DAA6FCF6F
:100AE000029761F4E889F989309709F00995EA8954
:100AF000FB89309751F38C899D89E6CFEE89FF8978
:100B0000309709F00995E88DF98D3097F1F28A8DCB
:100B10009B8DDACFE016F10629F099AB88AB87E020
:100B200090E06FCFE8A5F9A5309709F00995EAA5FF
:100B3000FBA5309709F443CF8CA59DA5DF91CF91FC
:100B40001F910F91FF90EF90BF90AF909F908F906B
:100B500009948A809B80B12CA12CE016F10699F4AF
:100B6000481559056A057B0508F440CFEAA1FBA1A9
:100B7000309709F00995ECA1FDA1309709F4A5CFB4
:100B80008EA19FA1A1CF481559056A057B0508F4E0
:100B900016CFECCFCF92DF92EF92FF920F931F937D
:100BA000CF93DF93FC01C48121E02093E801C0933F
:100BB000BB0110920C0210920B028385682B89E90D
:100BC00092E00E94D801D0910B02D13208F092C07D
:100BD0000E94D9026B017C0180915B02811165C08A
:100BE00082E080935B0281E080935D028FEF8093CF
:100BF0005A0210927F02D0937E02A8ECB1E0EEE59B
:100C0000F2E080E0D81385C01092800280918002CB
:100C1000CC0FC82BC093800280915C02813009F018
:100C20007CC010925C020E94D9026B017C01809111
:100C300080028093BB0080910E0290910F02A091E0
:100C40001002B0911102892B8A2B8B2B99F00E94F4
:100C5000D90200910E0210910F02209110023091E2
:100C600011026C197D098E099F09061717072807BD
:100C70003907E0F18091BC0083FDD9CF85EC8093EA
:100C8000BC000E94D9026B017C0180915B02823022
:100C900009F445C080915A028F3F61F180915A0258
:100CA000803241F180915A0225C080910E029091CC
:100CB0000F02A0911002B0911102892B8A2B8B2B6D
:100CC00009F48ACF0E94D90200910E0210910F02FE
:100CD00020911002309111026C197D098E099F0933
:100CE000061717072807390708F076CF80910D02FD
:100CF0000E947C0210920C0210920B021092E801EA
:100D0000DF91CF911F910F91FF90EF90DF90CF90E7
:100D100008959D9191938F5F75CF85EEB0CF8091AF
:100D20000E0290910F02A0911002B0911102892B36
:100D30008A2B8B2B09F4A9CF0E94D90200910E02B5
:100D400010910F0220911002309111026C197D094F
:100D50008E099F09061717072807390708F095CF4E
:100D6000C5CF089590E080E00895809104019091AE
:100D7000050126E0289FF001299FF00D1124E55878
:100D8000FD4F843091054CF411821082138212823F
:100D90001582148201963696F4CF81E090E090930C
:100DA0000501809304010895CF93DF93C0919702CA
:100DB000D0919802C130D10581F46CE271E080E0FD
:100DC00090E00E94FE020E940A0110929802109286
:100DD0009702D0930501C0930401DF91CF9108954C
:100DE0000F931F93CF938C01C62F0E94CA056C2FBF
:100DF0006460C8010E94CA056C2F6B7FC8010E9405
:100E0000CA0583EC90E00197F1F7CF911F910F9104
:100E100008950F931F93CF93DF938C01D62FC42F88
:100E2000607F642B0E94F00680E1D89FB0011124FE
:100E30006C2BC801DF91CF911F910F910C94F0069C
:100E4000CF93DF93CDB7DEB728970FB6F894DEBF08
:100E50000FBECDBF98E0ECE0F1E0DE01119601900D
:100E60000D929A95E1F79091E105961710F46FEFC6
:100E7000690F262F30E0220F331F41E050E04C0F66
:100E80005D1F240F351FF9016081680F606840E025
:100E900088ED95E028960FB6F894DEBF0FBECDBF63
:100EA000DF91CF910C94090740E061E088ED95E077
:100EB0000E9409078BE39FE10197F1F7089541E054
:100EC0000E94090781E090E008950F931F93E7EED9
:100ED000F0E06491E3EDF0E0E491F0E0EE0FFF1F4D
:100EE000EF53FF4F8591949100E412E42FE030E03E
:100EF00040E00E94410D611571058105910529F0C1
:100F00006F5F7F4F8F4F9F4F9F701F910F9108957D
:100F100085ED8093BC0080910E0290910F02A0910C
:100F20001002B09111020796A11DB11D23E0B695E4
:100F3000A795979587952A95D1F72091BC0024FD18
:100F400003C010925B02089540910E0250910F026F
:100F50006091100270911102452B462B472B69F3CB
:100F60000097A105B10541F025E32A95F1F70000AE
:100F70000197A109B109E1CF80910D020C947C0287
:100F8000FB0101900020E9F73197AF01461B570B99
:100F9000DC01ED91FC910280F381E02D0994CF9367
:100FA000DF93BC0185EA92E00E94C007EC0164E493
:100FB00071E085EA92E00E94C0078C0F9D1FDF91CF
:100FC000CF9108958F929F92AF92BF92CF92DF926E
:100FD000EF92FF920F931F93CF93DF93CDB7DEB7BE
:100FE000A1970FB6F894DEBF0FBECDBF6B017C0199
:100FF000F7FE43C06DE285EA92E00E94F9038C019E
:1010000022273327A9012C193D094E095F0919A28E
:10101000CE0181967C019AE0892E912CA12CB12CD5
:10102000CA01B901A50194010E941414605DF70181
:1010300062937F01211531054105510589F790E043
:1010400080E0309729F0BF0185EA92E00E94C00756
:10105000800F911FA1960FB6F894DEBF0FBECDBFD3
:10106000DF91CF911F910F91FF90EF90DF90CF9084
:10107000BF90AF909F908F900895AC019B0119A2F3
:101080008E010F5D1F4F8AE0C82ED12CE12CF12C70
:10109000CA01B901A70196010E941414605DF8010C
:1010A00062938F01211531054105510589F790E0C3
:1010B00080E0309779F2BF0185EA92E00E94C00794
:1010C000C9CF7F928F929F92AF92BF92CF92DF92C1
:1010D000EF92FF920F931F93CF93DF9300D000D036
:1010E00000D0CDB7DEB760E086E00E94300260E05D
:1010F00087E00E94300261E086E00E94300261E0F9
:1011000087E00E94300260E086E00E94300261E0E9
:1011100087E00E9430020E9430034B015C01809105
:10112000970290919802892B09F071C06CE271E0EE
:1011300080E090E00E94FE0280EA90E00E94A5001C
:101140000E94540796E0792E0E94650770939602DC
:10115000609395020E9465077093940260939302D6
:101160000E9465076B016091950270919602009153
:1011700093021091940280910401909105010197CE
:10118000789EF001799EF00D1124EF57FD4F718389
:10119000608313830283D582C482072E000C880BE0
:1011A000990B0E94E207B801110F880B990B0E945E
:1011B000E207B601DD0C880B990B0E94E20786E47A
:1011C00091E00E94CF070E943003681979098A09CB
:1011D0009B09603D77408105910508F4B5CF82E316
:1011E00090E00E94A50026960FB6F894DEBF0FBED1
:1011F000CDBFDF91CF911F910F91FF90EF90DF90C6
:10120000CF90BF90AF909F908F907F9008950E9455
:10121000650770939602609395020E94650770932C
:101220009402609393020E9465076B01609195029E
:10123000709196027A8369830091930210919402CF
:101240001C830B83DE82CD82072E000C880B990B4A
:101250000E94E207B801110F880B990B0E94E20768
:10126000B601DD0C880B990B0E94E20786E491E041
:101270000E94CF0770E060E086E0F82EDE01119654
:10128000F69EF001F79EF00D1124EF57FD4F30E070
:1012900020E0C901860F971FAD90BD90008111819C
:1012A000650143E0C40ED11CC016D1063CF0A50177
:1012B00042505109041715070CF095CF2F5F3F4F8F
:1012C00038962330310529F762E070E0892BB1F2BE
:1012D0008FEF9FEF88CF0C94C0070F931F93CF938E
:1012E000DF93EC0188819981009759F02A813B8135
:1012F0002617370730F081E0DF91CF911F910F91D2
:1013000008958B016F5F7F4F0E949015009759F0F1
:10131000998388831B830A832C813D81232B59F772
:10132000FC011082E8CF80E0E7CF8F929F92AF92CE
:10133000BF92CF92DF92EF92FF920F931F93CF93C2
:10134000DF9300D0CDB7DEB7009779F18B017C0138
:101350000E94A2134C01D12CC12CC814D9042CF525
:10136000F701EC0DFD1DE491E9831A82F801A480D8
:10137000B580FFEFAF1ABF0AB501C8010E946D0921
:10138000882379F0F8012081318184819581BE0123
:101390006F5F7F4F820F931F0E945616F801B58230
:1013A000A482FFEFCF1ADF0AD8CF0F900F90DF9102
:1013B000CF911F910F91FF90EF90DF90CF90BF9052
:1013C000AF909F908F9008950F931F93CF93DF93CB
:1013D00000D000D000D0CDB7DEB78C0187E491E01B
:1013E0000E94CF071A8219821C821B821E821D82D4
:1013F00070E060E0CE0101960E946D0929813A817A
:1014000081116CC02115310519F0C9010E94071521
:101410001A8219821E821D821C821B82BE016F5F8E
:101420007F4FC8010E94950960E080E00E9420077C
:1014300064E571E088ED95E00E946B096D817E8125
:1014400084E190E00E945114862F61E08F5F0E943A
:1014500020074D815E8169817A8188ED95E00E9447
:10146000590362E080E00E94200764E571E088EDA6
:1014700095E00E946B0963E084E00E94200741E050
:101480006FE788ED95E00E9409076AE671E088ED54
:1014900095E00E946B0941E06EE788ED95E00E94BF
:1014A000090769E671E088ED95E00E946B096CE63A
:1014B00071E088ED95E00E946B0989819A8100971F
:1014C00011F00E94071526960FB6F894DEBF0FBEE6
:1014D000CDBFDF91CF911F910F9108951E821D8284
:1014E00066E471E0C9010E94561698CF1F920F92D0
:1014F0000FB60F9211242F933F934F935F936F93E7
:101500007F938F939F93AF93BF93EF93FF938091BC
:10151000B900887F803609F44AC0F0F5883209F4B2
:10152000A7C018F5803109F49BC0B8F4882309F4EA
:10153000F9C0883009F494C0FF91EF91BF91AF9149
:101540009F918F917F916F915F914F913F912F91DB
:101550000F900FBE0F901F901895883109F488C026
:10156000803251F780935A0214C0803409F49DC030
:1015700040F48033B9F38833F9F680935A0285EC4E
:10158000B0C0803509F485C0883509F496C0883428
:1015900099F60E948807D0CF883909F48CC038F5B5
:1015A000883729F050F4883611F0803729F683E027
:1015B00080935B021092590257C0883809F47BC0AF
:1015C000803919F0803809F0B7CF80915902803204
:1015D00008F071C0E091590281E08E0F80935902AA
:1015E0008091BB00F0E0E75CFD4F80833DC0803B15
:1015F00039F0E0F4803A09F479C0883A09F09CCFD8
:1016000084E080935B021092360210923502E091E2
:101610003302F091340209958091350281110FC097
:1016200081E0809335021092130209C0803C09F4D6
:10163000A6CF883C09F4A3CF883B09F07DCFE09189
:10164000360281E08E0F80933602F0E0ED5EFD4FB2
:1016500080818093BB00909136028091350229C031
:10166000809180028093BB0085EC8093BC0064CFA6
:1016700090917F0280917E02981758F5E0917F0249
:1016800081E08E0F80937F02F0E0E25AFD4F80816F
:10169000E9CFE0917F0281E08E0F80937F028091FD
:1016A000BB00F0E0E25AFD4F808390917F02809171
:1016B0007E029817C8F285E8D8CFE0917F0281E0DA
:1016C0008E0F80937F028091BB00F0E0E25AFD4FC5
:1016D000808380915D0281115CCF81E080935C0208
:1016E00084EA8093BC0010925B0226CF85EC809345
:1016F000BC0010925B0280915902803230F4E0917C
:101700005902F0E0E75CFD4F10826091590270E0F1
:10171000E0913702F091380289E392E00995109246
:1017200059020ACF10925A0234CF1F920F920FB66D
:101730000F9211242F933F938F939F93AF93BF9357
:101740008091C0019091C101A091C201B091C301EB
:101750003091BF0123E0230F2D3758F50196A11DCD
:10176000B11D2093BF018093C0019093C101A0934C
:10177000C201B093C3018091C4019091C501A091B1
:10178000C601B091C7010196A11DB11D8093C4018E
:101790009093C501A093C601B093C701BF91AF91CB
:1017A0009F918F913F912F910F900FBE0F901F909F
:1017B000189526E8230F0296A11DB11DD2CF1F92C6
:1017C0000F920FB60F9211242F933F934F935F9375
:1017D0006F937F938F939F93AF93BF93EF93FF93F9
:1017E000E0910201F09103010995FF91EF91BF9102
:1017F000AF919F918F917F916F915F914F913F91A9
:101800002F910F900FBE0F901F9018951F920F925F
:101810000FB60F9211242F933F934F935F936F93C3
:101820007F938F939F93AF93BF93EF93FF93E09139
:101830000001F09101010995FF91EF91BF91AF91E6
:101840009F918F917F916F915F914F913F912F91D8
:101850000F900FBE0F901F9018951F920F920FB60A
:101860000F9211242F933F934F935F936F937F9326
:101870008F939F93AF93BF93EF93FF9385EA92E08B
:101880000E94D703FF91EF91BF91AF919F918F91EC
:101890007F916F915F914F913F912F910F900FBE6C
:1018A0000F901F9018951F920F920FB60F92112450
:1018B0002F938F939F93EF93FF93E091B502F09155
:1018C000B6028081E091BB02F091BC0282FD1BC098
:1018D00090818091BE028F5F8F732091BF0282172B
:1018E00041F0E091BE02F0E0EB55FD4F958F809303
:1018F000BE02FF91EF919F918F912F910F900FBE9C
:101900000F901F9018958081F4CF1F920F920FB601
:101910000F9211242F933F934F935F936F937F9375
:101920008F939F93AF93BF93CF93DF93EF93FF93E7
:101930008091BA01C0916603D0E087FF24C0109265
:101940008500109284008091BA018F5F8093BA0164
:101950008091BA01082E000C990B8C179D0724F476
:101960008091BA018C30C4F18091840090918500FF
:10197000049680349C4908F47AC080918400909148
:101980008500049676C08091BA01082E000C990B50
:101990008C179D07C4F6E091BA018E2FEE0F990BBC
:1019A000FC01EE0FFF1FE80FF91FEE5BFC4F80817B
:1019B00086FFC9CFE091BA018E2FEE0F990BFC0183
:1019C000EE0FFF1FE80FF91FEE5BFC4F808160E018
:1019D0008F730E943002B7CF209184003091850030
:1019E000E091BA018E2FEE0F990BFC01EE0FFF1F55
:1019F000E80FF91FEE5BFC4F81819281820F931FEC
:101A00009093890080938800E091BA018E2FEE0FA9
:101A1000990BFC01EE0FFF1FE80FF91FEE5BFC4F67
:101A2000808186FF11C0E091BA018E2FEE0F990BD5
:101A3000FC01EE0FFF1FE80FF91FEE5BFC4F8081EA
:101A400061E08F730E943002FF91EF91DF91CF919F
:101A5000BF91AF919F918F917F916F915F914F91C6
:101A60003F912F910F900FBE0F901F90189580E41B
:101A70009CE990938900809388008FEF8093BA014E
:101A8000E3CFCF92DF92EF92FF920F931F93E82F55
:101A9000F92F05C0015011092109310961F1908127
:101AA00096239417B9F305C0015011092109310992
:101AB00011F1908196239413F7CFC12CD12CE12CF6
:101AC000F12C0AC08FEFC81AD80AE80AF80A0C15D8
:101AD0001D052E053F0579F080818623841791F33B
:101AE0006C2D7D2D8E2D9F2D1F910F91FF90EF90CE
:101AF000DF90CF90089560E070E080E090E01F916B
:101B00000F91FF90EF90DF90CF900895CF92DF92EA
:101B1000EF92FF920F931F93CF93DF9310929C024B
:101B200010929B0288EE93E0A0E0B0E080939D02CB
:101B300090939E02A0939F02B093A00228E131E00F
:101B400030939A02209399021092A8021092A70251
:101B50008093A9029093AA02A093AB02B093AC0227
:101B60008AE291E09093A6028093A50285EC90E032
:101B70009093B2028093B10284EC90E09093B4020F
:101B80008093B30280EC90E09093B6028093B5020C
:101B900081EC90E09093B8028093B70282EC90E0E1
:101BA0009093BA028093B90286EC90E09093BC02C5
:101BB0008093BB021092BE021092BF021092C0022C
:101BC0001092C1021092DB051092DA058CE391E0CD
:101BD0009093D9058093D80587E28093DC0584E152
:101BE0008093E00584E08093E1051092E20588E0AF
:101BF0008093E30532E3C32ED12CD092A105C0928D
:101C0000A00540E9E42EFF24F394F092A305E092AE
:101C1000A20500E213E01093A5050093A40510921D
:101C2000A9051092A8051092AB051092AA05109272
:101C3000AD051092AC051092AF051092AE05109252
:101C4000B1051092B0051092B3051092B205109232
:101C5000B5051092B4051092B7051092B605109212
:101C6000B9051092B8051092BB051092BA051092F2
:101C7000BD051092BC051092BF051092BE051092D2
:101C8000C1051092C0051092C3051092C2051092B2
:101C9000C7051092C6051092C9051092C80510928A
:101CA000CB051092CA051092CD051092CC0510926A
:101CB000CF051092CE05C1E0D0E0D093D705C093F8
:101CC000D6058AE090E090939F0580939E05D0937F
:101CD000A705C093A60560E00E949D02D09267050B
:101CE000C0926605F0926905E092680510936B0555
:101CF00000936A0510926F0510926E05109271059F
:101D0000109270051092730510927205109275056D
:101D1000109274051092770510927605109279054D
:101D20001092780510927B0510927A0510927D052D
:101D300010927C0510927F0510927E05109281050D
:101D400010928005109283051092820510928505ED
:101D500010928405109287051092860510928905CD
:101D60001092880510928D0510928C0510928F05A7
:101D700010928E0510929105109290051092930585
:101D8000109292051092950510929405D0939D059E
:101D9000C0939C0582E090E0909365058093640574
:101DA000D0936D05C0936C0560E00E949D02EAE649
:101DB000F3E086E491E0918380831382128214829F
:101DC000359625E0EE35F207B1F7109261051092D5
:101DD000600510925F0510925E05109263051092E7
:101DE0006205809166038C30D8F491E0980F90934F
:101DF00066038093670390E0FC01EE0FFF1FE80F7E
:101E0000F91FEE5BFC4F88EB9BE092838183DF91AF
:101E1000CF911F910F91FF90EF90DF90CF90089599
:101E20008FEF80936703F3CFCF93DF9300D000D081
:101E300000D0CDB7DEB7789484B5826084BD84B518
:101E4000816084BD85B5826085BD85B5816085BDB5
:101E500080916E00816080936E001092810080916D
:101E600081008260809381008091810081608093F5
:101E70008100809180008160809380008091B1001A
:101E800084608093B1008091B00081608093B00045
:101E900080917A00846080937A0080917A008260D9
:101EA00080937A0080917A00816080937A0080919B
:101EB0007A00806880937A001092C10061E084E02B
:101EC0000E949D0261E085E00E949D0261E086E043
:101ED0000E949D0261E087E00E949D0260E088E030
:101EE0000E949D0260E08AE00E949D0260E082E024
:101EF0000E949D02809167038C3008F051C061E020
:101F000089E00E949D0280916703282F30E0F9014B
:101F1000EE0FFF1FE20FF31FEE5BFC4F9081907CF2
:101F20009960908310926803109269032CE0622FED
:101F30000E944514829FB001112430E020E0AB01E3
:101F4000420F531FFA01EE0FFF1FE40FF51FEE5B68
:101F5000FC4F908196FD16C02F5F3F4F2C3031050E
:101F600071F781110FC01092800082E08093810090
:101F70001092850010928400B19A80916F00826067
:101F800080936F00E09167038E2F90E0FC01EE0FCD
:101F9000FF1FE80FF91FEE5BFC4F80818064808398
:101FA00082E390E00E94A50061E084E00E9430029C
:101FB00060E085E00E94300210920A02109209024D
:101FC00010920C0210920B020E945E028FE791E0C9
:101FD000909334028093330280E891E0909338022A
:101FE000809337021092DD058091E105823018F070
:101FF00098E09093DD059091E205992339F08130C6
:1020000029F48091DD0584608093DD0562E370E052
:1020100080E090E00E94FE026091E30588ED95E08B
:102020000E94CA0568EE73E080E090E00E94FE0224
:1020300060E388ED95E00E94F0060BE416E4C80129
:102040000197F1F760E388ED95E00E94F006C80182
:102050000197F1F760E388ED95E00E94F00683E5D3
:1020600092E00197F1F760E288ED95E00E94F006BA
:102070006091DD05606240E088ED95E00E9409070F
:1020800084E08093DE0540E06CE088ED95E00E94FE
:1020900009070E94540782E08093DF0540E066E074
:1020A00088ED95E00E94090740E062E088ED95E048
:1020B0000E9409078BE39FE10197F1F788E0809385
:1020C000E30560E088ED95E00E94CA050E94540790
:1020D00060E080E00E94200764E571E088ED95E013
:1020E0000E946B0961E080E00E94200767E771E0D1
:1020F00088ED95E00E946B0962E080E00E94200775
:1021000064E571E088ED95E00E946B0964EF71E091
:1021100080E090E00E94FE020E94540750E040E000
:1021200060E970E090E080E00E94340141E050E01E
:1021300067E870E090E080E00E94340142E050E007
:1021400067E770E090E080E00E94340143E050E0F7
:1021500068E670E081E090E00E9434011092610531
:1021600010926005C0906A03D0906B038AE891E0FA
:102170000E94CF070AE613E0F12CE12C8091620562
:1021800090916305E816F9060CF06AC0B12CA12CF9
:10219000D80114968C918A151B0459F054F069E605
:1021A00071E085EA92E00E946B09BFEFAB1ABB0AAF
:1021B000EFCFF801A080B1801A8219821C821B82A5
:1021C0001E821D8270E060E0CE0101960E946D09C2
:1021D00029813A8181113CC02115310519F0C901CD
:1021E0000E9407151A8219821E821D821C821B8280
:1021F000BE016F5F7F4FC5010E9495094D815E81D1
:1022000069817A8185EA92E00E94590360E971E070
:1022100085EA92E00E946B09D80112966D917C913B
:10222000072E000C880B990B0E94E20764E471E012
:1022300085EA92E00E94C00789819A81009711F097
:102240000E940715BFEFEB1AFB0A0B5F1F4F96CFDB
:102250001E821D8266E471E0C9010E945616C8CF35
:10226000C6010E94E4098CE393E09093AF0580934C
:10227000AE058091D6059091D7058230910514F472
:1022800082E090E09093D7058093D60583E493E0B5
:102290009093A9058093A8058AE493E09093BB05E9
:1022A0008093BA0581E593E090936F0580936E0566
:1022B00084ED96E090930101809300018091690084
:1022C0008C7F816080936900E89AE091B502F0917B
:1022D000B60282E08083E091B102F091B2021082F6
:1022E000E091B302F091B4028FEC80831092BD02B2
:1022F000E091B902F091BA0286E08083E091B702E2
:10230000F091B802808180618083E091B702F09102
:10231000B802808188608083E091B702F091B802B2
:10232000808180688083E091B702F091B80280815B
:102330008F7D8083E3E92E2EE2E03E2E3E01E7E032
:102340006E0E711CF5E05F2EA0E08A2EA0E09A2EA2
:1023500001E010E044244394809197029091980208
:10236000892B09F023C18091BD019091BE0182307B
:10237000910509F4A4C008F045C0019709F476C09E
:102380008091600590916105589EF001599EF00D75
:102390001124E659FC4FE280F380808191810E94F4
:1023A000E4098091BD019091BE01039769F4809189
:1023B000BC01811109C0E114F10409F4A4C0B3E027
:1023C000EB16F10409F4ACC01092BE011092BD01ED
:1023D0008EE995E00E94660484E695E00E9466041A
:1023E0006AE070E080E090E00E94FE0281149104B7
:1023F00009F4B2CF0E94C303882309F4ADCF0E9431
:102400000000A8CF8330910531F0049709F0B8CFD0
:102410000E940A01B5CF1092BC0180916005909195
:10242000610501962091620530916305821793073B
:102430000CF0A6CF589E9001599E300D1124F90141
:10244000E659FC4F44812B593C4FD90114962C91ED
:1024500030E02F5F3F4F4217130609F091CF909362
:102460006105809360054092BC018ACF8091600530
:10247000909161052091620530916305589EF001AD
:10248000599EF00D1124E659FC4F0196DF01821789
:1024900093070CF075CF19965C91199744815417E6
:1024A00008F46ECF541308C08F3F980729F090931B
:1024B00061058093600564CF01961596E8CF409141
:1024C000600550916105141615060CF059CFCA012C
:1024D0000197549E9001559E300D1124F901E75942
:1024E000FC4F26593C4F8F3F980709F449CF508144
:1024F000D90114964C91541708F442CF35975417CC
:10250000B1F20197F0CF6CE271E080E090E00E94C0
:10251000FE020E945407109398020093970254CF32
:102520008091970290919802892B09F04DCF68EC29
:1025300070E080E090E00E94FE020E9454076091EB
:10254000040170910501072E000C880B990B0E9465
:10255000E20764E471E085EA92E00E94C00780919E
:102560000401909105018430910559F4109398026B
:10257000009397020E94B506109305010093040191
:1025800023CF039739F410939802009397020E9487
:10259000B5061ACF0E94610880910401909105014F
:1025A000019690930501809304010ECF71E8E72E08
:1025B00072E0F72E5701D12CC12CF5016191719178
:1025C0005F01072E000C880B990B0E94E20767E65B
:1025D00071E085EA92E00E946B09FFEFCF1ADF0AF3
:1025E00023E0C216D10449F787E691E00E94CF07A5
:1025F00046E0E40EF11C2E143F04E1F685E691E07E
:102600000E94CF0768EE73E080E090E00E94FE0237
:1026100080EA90E00E94A5000E9430036B017C01DB
:102620001A8219821C821B821E821D820E946108EE
:10263000009709F075C089819A8101969A838983F0
:102640000E9430036C197D098E099F09603D774017
:102650008105910558F349815A81CA0157FF02C08B
:1026600090E080E02B813C81F12CE12C82179307D4
:1026700024F4C901EE24E394F12C6D817E81861748
:1026800097071CF492E0E92EF12C483051054CF4E8
:102690002830310534F4683071051CF4EE24EA94D6
:1026A000FE2CFE0131966F01D6016D917D916D0179
:1026B000072E000C880B990B0E94E20763E971E07A
:1026C00085EA92E00E946B096C147D0469F786E448
:1026D00091E00E94CF070E9454076FE971E0B1E0DA
:1026E000EB16F10461F067EA71E0E2E0EE16F10446
:1026F00031F067E971E0EF2811F06FEA71E088EDE1
:1027000095E00E946B0982E390E00E94A50060EDD5
:1027100077E080E090E00E94FE020E94540758CECD
:102720008130910531F48B819C8101969C838B8350
:1027300087CF029709F084CF8D819E8101969E8379
:102740008D837ECFFC0105900020E9F78095909560
:102750008E0F9F1F0895052E97FB1EF400940E9474
:10276000C21357FD07D00E94141407FC03D04EF487
:102770000C94C21350954095309521953F4F4F4F83
:102780005F4F089590958095709561957F4F8F4F1D
:102790009F4F08950E943614A59F900DB49F900DF1
:1027A000A49F800D911D11240895B7FF0C94CA13A6
:1027B0000E94CA13821B930B08952F923F924F924F
:1027C0005F926F927F928F929F92AF92BF92CF92C1
:1027D000DF92EF92FF920F931F93CF93DF93CDB7CA
:1027E000DEB7CA1BDB0B0FB6F894DEBF0FBECDBF42
:1027F00009942A88398848885F846E847D848C8413
:102800009B84AA84B984C884DF80EE80FD800C811B
:102810001B81AA81B981CE0FD11D0FB6F894DEBFFE
:102820000FBECDBFED010895A1E21A2EAA1BBB1B5E
:10283000FD010DC0AA1FBB1FEE1FFF1FA217B3078C
:10284000E407F50720F0A21BB30BE40BF50B661FA2
:10285000771F881F991F1A9469F760957095809566
:1028600090959B01AC01BD01CF010895A29FB001DD
:10287000B39FC001A39F700D811D1124911DB29FB4
:10288000700D811D1124911D0895991B79E004C0DC
:10289000991F961708F0961B881F7A95C9F780959F
:1028A0000895AA1BBB1B51E107C0AA1FBB1FA61797
:1028B000B70710F0A61BB70B881F991F5A95A9F7E9
:1028C00080959095BC01CD010895EE0FFF1F0590F6
:1028D000F491E02D09940F931F93CF93DF938230EF
:1028E000910510F482E090E0E091E605F091E705B3
:1028F00030E020E0B0E0A0E0309799F421153105F8
:1029000009F44AC0281B390B24303105D8F58A81D7
:102910009B816115710589F1FB0193838283FE011F
:1029200011C0408151810281138148175907E0F09D
:102930004817590799F4109761F012960C93129763
:1029400013961C933296CF01DF91CF911F910F9177
:1029500008950093E6051093E705F4CF211531059E
:1029600051F04217530738F0A901DB019A01BD016C
:10297000DF01F801C1CFEF01F9CF9093E705809314
:10298000E605CDCFFE01E20FF31F81939193225014
:10299000310939832883D7CF2091E4053091E505AB
:1029A000232B41F420910801309109013093E50572
:1029B0002093E4052091060130910701211531058E
:1029C00041F42DB73EB740910A0150910B01241BF1
:1029D000350BE091E405F091E505E217F307A0F46B
:1029E0002E1B3F0B2817390778F0AC014E5F5F4F65
:1029F0002417350748F04E0F5F1F5093E5054093AD
:102A0000E405819391939FCFF0E0E0E09CCFCF93DA
:102A1000DF930097E9F0FC01329713821282A091B4
:102A2000E605B091E705ED0130E020E01097A1F454
:102A300020813181820F931F2091E4053091E505BB
:102A40002817390709F061C0F093E505E093E40524
:102A5000DF91CF910895EA01CE17DF07E8F54A81AB
:102A60005B819E0141155105B1F7E901FB83EA83C2
:102A700049915991C40FD51FEC17FD0761F480816E
:102A800091810296840F951FE90199838883828141
:102A900093819B838A83F0E0E0E012968D919C9174
:102AA00013970097B9F52D913C911197CD0102969E
:102AB000820F931F2091E4053091E505281739070F
:102AC00039F6309751F51092E7051092E605B0936C
:102AD000E505A093E405BCCFD383C2834081518137
:102AE000840F951FC817D90761F44E5F5F4F888127
:102AF0009981480F591F518340838A819B81938319
:102B000082832115310509F0B0CFF093E705E093FA
:102B1000E6059ECFFD01DC01C0CF13821282D7CF24
:102B2000B0E0A0E0E6E9F5E10C94DF138C0100973A
:102B300051F4CB010E946B148C01C801CDB7DEB7F4
:102B4000E0E10C94FB13FC01E60FF71F9C012250FF
:102B50003109E217F30708F49DC0D901CD91DC914A
:102B60001197C617D70798F0C530D10530F3CE01BD
:102B700004978617970708F3C61BD70B2297C193B4
:102B8000D1936D937C93CF010E940715D6CF5B0143
:102B9000AC1ABD0A4C018C0E9D1EA091E605B091A9
:102BA000E705512C412CF12CE12C109731F5809147
:102BB000E4059091E5058815990509F05CC0461675
:102BC000570608F058C080910601909107010097C0
:102BD00041F48DB79EB740910A0150910B01841BBF
:102BE000950BE817F90708F055C0F093E505E09359
:102BF000E405F90171836083A0CF8D919C911197B9
:102C000012966C90129713967C901397A815B9059D
:102C100059F56C0142E0C40ED11CCA14DB0420F14A
:102C2000AC014A195B09DA011296159780F06282AD
:102C3000738251834083D9016D937C93E114F10435
:102C400071F0D7011396FC93EE93129776CF2296EC
:102C50008C0F9D1FF90191838083F301EFCFF093D7
:102C6000E705E093E60569CF4816590608F42C01FC
:102C70007D01D3019ACFCB010E946B147C01009798
:102C800049F0AE01B8010E944D16C8010E94071517
:102C9000870153CF10E000E050CFFB01DC0102C000
:102CA00001900D9241505040D8F70895FB01DC018E
:0E2CB00001900D920020E1F70895F894FFCFF7
:102CBE005803580301000000E805800000004000A2
:102CCE001400540000000000D801AB01B2068101CF
:102CDE00A4019101820100000000F903590386034B
:102CEE004604B7039503A903000000005F075903CC
:102CFE00B206B1060D0A007072696E742066756EAA
:102D0E006B6365002D2D2D2D2D2D2D2D2D2D2D2D66
:102D1E002D2D2D2D2D2D2D2D00202000456E746571
:102D2E00722F4578697400202041726475696E6F48
:102D3E00205472696469636B61006D656E753A004B
:102D4E002C2000202D20004261727661203100423D
:102D5E006172766120320042617276612033004AE0
:0A2D6E00696E6120626172766100F7
:00000001FF
