:100000000C947B000C944E0C0C94270C0C94A300C5
:100010000C94A3000C94A3000C94A3000C94A300D4
:100020000C94A3000C94A3000C94A3000C94CD0C8E
:100030000C94A3000C94A3000C94A3000C94A300B4
:100040000C94DD0B0C94A3000C949B0C0C94750C7D
:100050000C94A3000C94A3000C94A3000C94A30094
:100060000C94BE0A0C94A30056686F6474652070EB
:100070007265646D657400332E205072696461741A
:1000800020626172767500322E20526573657400AD
:10009000312E205354415254000000000024002708
:1000A000002A0000000000250028002B00000000AE
:1000B0000800020100000304070000000000000027
:1000C00000000000002300260029000404040404AA
:1000D00004040402020202020203030303030301F5
:1000E00002040810204080010204081020010204CC
:1000F00008102000CE0D11241FBECFEFD8E0DEBFC8
:10010000CDBF11E0A0E0B1E0E4E0FDE202C0059067
:100110000D92AE3AB107D9F725E0AEEAB1E001C0E1
:100120001D92AF3DB207E1F710E0CBE7D0E004C08D
:100130002197FE010E948814CA37D107C9F70E948F
:10014000760F0C9480160C940000809157059091C6
:10015000580525E0289FF001299FF00D1124DF01AB
:10016000AF59BC4F14964C914423C1F01816190690
:10017000ACF40197E05AFC4F50E08F3F980771F0C4
:10018000208130E02F5F3F4F35972417350711F05E
:100190000197F3CF909358058093570508952091C8
:1001A00057053091580524363105E4F495E0929FC7
:1001B000F001939FF00D1124EF59FC4F7183608380
:1001C0005383428384832F5F3F4F3093580520939E
:1001D00057058091590590915A05019690935A05BB
:1001E00080935905089520912902260F3327331F44
:1001F00021323105ECF420914F02FC0190E080E0C7
:10020000243069F082E00895A09129022191AC0187
:10021000495F5D4FA40FB52FB11D2C930196861732
:1002200098F380912902680F6093290280E0089575
:1002300081E00895089508950895E091FE01809168
:10024000FD01E81730F4F0E0E352FE4F808190E0CA
:1002500008958FEF9FEF08959091FE018091FD0129
:100260002FEF3FEF981748F4E92FF0E0E352FE4FED
:10027000208130E09F5F9093FE01C9010895809135
:10028000FD019091FE01891B990B0895CF92DF9299
:10029000EF92FF920F931F93CF93DF937C01CB01DB
:1002A0008A012091DC01222389F0EB016B01C40E4D
:1002B000D51ECC15DD0569F06991D701ED91FC9152
:1002C0000190F081E02DC7010995F3CF642F0E94C2
:1002D000F300C801DF91CF911F910F91FF90EF9034
:1002E000DF90CF900895CF93DF931F92CDB7DEB705
:1002F00069832091DC012223F9F02091FF01203253
:1003000058F021E030E0FC013383228390E080E06C
:100310000F90DF91CF91089580910002E82FF0E0D7
:10032000E454FE4F998190838F5F80930002809305
:10033000FF0181E090E0ECCF61E0CE0101960E94E8
:10034000F300F7CF833081F028F4813099F08230C8
:10035000A9F008958730A9F08830C9F08430B1F44D
:10036000809180008F7D03C0809180008F77809383
:100370008000089584B58F7784BD089584B58F7DFE
:10038000FBCF8091B0008F778093B000089580916B
:10039000B0008F7DF9CF1F93CF93DF93282F30E0EC
:1003A000F901E355FF4F8491F901E152FF4FD491D8
:1003B000F901E553FF4FC491CC23A9F0162F811109
:1003C0000E94A201EC2FF0E0EE0FFF1FED55FF4F52
:1003D000A591B4918FB7F894EC91111108C0D09504
:1003E000DE23DC938FBFDF91CF911F910895DE2B29
:1003F000F8CF10924F0281E0809351021092500288
:1004000061E082E10E94CB0161E083E10E94CB01C7
:10041000E9EBF0E080818E7F808380818D7F808317
:1004200088E48093B80085E48093BC000895CF935E
:10043000DF9391E0909306028823B9F0C091B80051
:10044000D091BA008091BC008A7B8093BC0060E0B0
:1004500082E10E94CB0160E083E10E94CB010E9417
:10046000F901D093BA00C093B800DF91CF910895FD
:10047000CF93DF9390E0FC01E152FF4F249185532D
:100480009F4FFC0184918823C9F090E0880F991F49
:10049000FC01E756FF4FA591B491FC01ED55FF4FCC
:1004A000C591D49161110DC09FB7F8948C9120959E
:1004B00082238C938881282328839FBFDF91CF914B
:1004C0000895623051F49FB7F8943C91822F809543
:1004D00083238C93E8812E2BEFCF8FB7F894EC9188
:1004E0002E2B2C938FBFEACF3FB7F8948091B801A1
:1004F0009091B901A091BA01B091BB0126B5A89B1A
:1005000005C02F3F19F00196A11DB11D3FBFBA2FA5
:10051000A92F982F8827BC01CD01620F711D811D65
:10052000911D42E0660F771F881F991F4A95D1F7EA
:1005300008958F929F92AF92BF92CF92DF92EF92E7
:10054000FF924B015C010E9474026B017C010E94CE
:1005500074026C197D098E099F09683E73408105FC
:100560009105A8F321E0821A9108A108B10888EE4C
:10057000C80E83E0D81EE11CF11C81149104A10473
:10058000B10429F7FF90EF90DF90CF90BF90AF902C
:100590009F908F9008952FB7F8946091B401709157
:1005A000B5018091B6019091B7012FBF089581E008
:1005B00090E090938C0280938B02089583E090E00A
:1005C0009093B2018093B101089584E090E09093FC
:1005D000B2018093B101089581E090E09093B2015F
:1005E0008093B10108950895AF92BF92CF92DF92A8
:1005F000EF92FF920F931F93CF93DF936C017B01D8
:100600008B01040F151FEB015E01AE18BF08C01768
:10061000D10759F06991D601ED91FC910190F081DB
:10062000E02DC6010995892B79F7C501DF91CF919E
:100630001F910F91FF90EF90DF90CF90BF90AF9000
:100640000895FC01538D448D252F30E0842F90E0D8
:10065000821B930B541710F0CF96089501970895BD
:10066000FC01918D828D981761F0A28DAE0FBF2F86
:10067000B11D5D968C91928D9F5F9F73928F90E0DC
:1006800008958FEF9FEF0895FC01918D828D98174B
:1006900031F0828DE80FF11D858D90E008958FEF88
:1006A0009FEF0895FC01918D228D892F90E0805C51
:1006B0009F4F821B91098F739927089589E992E0D2
:1006C0000E94520321E0892B09F420E0822F089533
:1006D00080E090E0892B29F00E945E0381110C9448
:1006E00000000895FC01A48DA80FB92FB11DA35AD5
:1006F000BF4F2C91848D90E001968F739927848F42
:10070000A689B7892C93A089B1898C918370806464
:100710008C93938D848D981306C00288F389E02D05
:1007200080818F7D80830895EF92FF920F931F93B6
:10073000CF93DF93EC0181E0888F9B8D8C8D981394
:100740001AC0E889F989808185FF15C09FB7F894A0
:10075000EE89FF896083E889F989808183708064EC
:1007600080839FBF81E090E0DF91CF911F910F9137
:10077000FF90EF900895F62E0B8D10E00F5F1F4F46
:100780000F731127E02E8C8D8E110CC00FB607FC55
:10079000FACFE889F989808185FFF5CFCE010E94E3
:1007A0007203F1CFEB8DEC0FFD2FF11DE35AFF4FDC
:1007B000F0829FB7F8940B8FEA89FB898081806271
:1007C000CFCFCF93DF93EC01888D8823B9F0AA892E
:1007D000BB89E889F9898C9185FD03C0808186FDFC
:1007E0000DC00FB607FCF7CF8C9185FFF2CF80814B
:1007F00085FFEDCFCE010E947203E9CFDF91CF914B
:1008000008958F929F92AF92BF92EF92FF920F93B3
:100810001F93CF93DF93FC012081318137FD6AC0A4
:10082000EC013327F901E355FF4F8491F901E152BF
:10083000FF4F0491F901E553FF4F14911123A1F1EA
:1008400081110E94A201E12FF0E0EE0FFF1FEF5394
:10085000FF4FA591B491EC910E2391E080E009F453
:1008600090E0092F182FE884F9840E94CB024B01F5
:100870005C018AA99BA9ACA9BDA9B501A401481B2B
:10088000590B6A0B7B0B8EA59FA58230910509F44D
:1008900078C06CF40097F9F081309105B1F199AB13
:1008A00088AB1FA61EA626C010E000E0DCCF863075
:1008B000910509F4CAC08730910509F4E5C0833079
:1008C000910569F7E016F10609F07AC099AB88AB9B
:1008D00081E090E031C0E016F10661F419AA18AA8F
:1008E00081E090E09FA78EA78AAA9BAAACAABDAA86
:1008F0001FAA1EAADF91CF911F910F91FF90EF9039
:10090000BF90AF909F908F900895E016F106D9F0B8
:100910000A811B8130E020E040175107620773070E
:1009200038F428A939A999AB88AB3FA72EA7E2CF05
:1009300099AB88AB82E090E09FA78EA78AAA9BAA7A
:10094000ACAABDAAD7CF8E819F81B0E0A0E084176A
:100950009507A607B70770F6EC8DFD8D309709F067
:100960000995EE8DFF8D309719F088A199A1099511
:100970008EA59FA599AB88AB86E090E09FA78EA738
:10098000B9CF8A809B80B12CA12CE016F10689F4A6
:10099000481559056A057B0520F28EA99FA9019685
:1009A0009FAB8EAB82E090E099AB88AB83E090E0A8
:1009B000E5CF481559056A057B0508F49BCFEDCFB7
:1009C0008EA99FA90C811D8130E020E00417150736
:1009D0002607370730F028AD39AD2817390709F059
:1009E00089CF81309105B9F4EA85FB85309709F00C
:1009F0000995EC85FD85309719F08E859F850995C1
:100A00001FA61EA619AA18AA1FAA1EAA1AAA1BAABE
:100A10001CAA1DAA6FCF029761F4E889F989309763
:100A200009F00995EA89FB89309751F38C899D89F2
:100A3000E6CFEE89FF89309709F00995E88DF98DA9
:100A40003097F1F28A8D9B8DDACFE016F10629F00E
:100A500099AB88AB87E090E06FCFE8A5F9A5309718
:100A600009F00995EAA5FBA5309709F443CF8CA5B9
:100A70009DA5DF91CF911F910F91FF90EF90BF90B7
:100A8000AF909F908F9009948A809B80B12CA12C6D
:100A9000E016F10699F4481559056A057B0508F436
:100AA00040CFEAA1FBA1309709F00995ECA1FDA187
:100AB000309709F4A5CF8EA19FA1A1CF4815590564
:100AC0006A057B0508F416CFECCFCF92DF92EF9248
:100AD000FF920F931F93CF93DF93FC01C48121E01A
:100AE0002093DC01C093AF01109200021092FF012D
:100AF0008385682B8DE892E00E947301D091FF01FD
:100B0000D13208F092C00E9474026B017C01809186
:100B10004F02811165C082E080934F0281E0809393
:100B200051028FEF80934E0210927302D0937202A3
:100B3000ACEBB1E0E2E5F2E080E0D81385C01092C2
:100B4000740280917402CC0FC82BC0937402809100
:100B50005002813009F07CC0109250020E94740251
:100B60006B017C01809174028093BB008091020232
:100B700090910302A0910402B0910502892B8A2B67
:100B80008B2B99F00E9474020091020210910302D3
:100B900020910402309105026C197D098E099F098C
:100BA0000617170728073907E0F18091BC0083FD7D
:100BB000D9CF85EC8093BC000E9474026B017C014C
:100BC00080914F02823009F445C080914E028F3FE0
:100BD00061F180914E02803241F180914E0225C038
:100BE0008091020290910302A0910402B09105024B
:100BF000892B8A2B8B2B09F48ACF0E9474020091D7
:100C000002021091030220910402309105026C1936
:100C10007D098E099F09061717072807390708F06D
:100C200076CF809101020E9417021092000210926A
:100C3000FF011092DC01DF91CF911F910F91FF9086
:100C4000EF90DF90CF9008959D9191938F5F75CF36
:100C500085EEB0CF8091020290910302A091040230
:100C6000B0910502892B8A2B8B2B09F4A9CF0E9406
:100C7000740200910202109103022091040230914B
:100C800005026C197D098E099F09061717072807A9
:100C9000390708F095CFC5CF089590E080E008951A
:100CA0008F929F92AF92BF92FF920F931F93CF9319
:100CB000DF93FC01F0808BE08F1508F44AC082813D
:100CC00008E512E0081B110987FD1395000F111F9D
:100CD000000F111F8181C8E8D0E0C81BD10987FD32
:100CE000D395CC0FDD1FCC0FDD1F4E010D2E000C58
:100CF000AA08BB089801012E000C440B550B2819BB
:100D000039094A095B09DB010E94F81324EB30E042
:100D100040E050E00E94CE13820E931EA41EB51E2A
:100D20008C169D062CF0E801801691060CF4E40167
:100D30002297CC0FDD1F2FB7F8948F2D90E0FC0188
:100D4000EE0FFF1FE80FF91FEA5CFC4FD283C1834F
:100D50002FBFDF91CF911F910F91FF90BF90AF9068
:100D60009F908F9008951F93CF93DF93EC01162FE0
:100D700088818C3008F04EC061E0812F0E943802DB
:100D80008881282F30E0F901EE0FFF1FE20FF31FDB
:100D9000EA5CFC4F1F736081607C612B6083198269
:100DA0001A822CE0622F0E946814829FB0011124E5
:100DB00030E020E0AB01420F531FFA01EE0FFF1F9E
:100DC000E40FF51FEA5CFC4F908196FD16C02F5F83
:100DD0003F4F2C30310571F781110FC01092800008
:100DE00082E0809381001092850010928400B19A75
:100DF00080916F00826080936F00E8818E2F90E079
:100E0000FC01EE0FFF1FE80FF91FEA5CFC4F808129
:100E1000806480838881DF91CF911F910895CF9363
:100E2000DF93C0918B02D0918C02C130D10581F447
:100E30006CE271E080E090E00E9499020E94A500BF
:100E400010928C0210928B02D0930501C093040182
:100E5000DF91CF9108950F931F93CF938C01C62FED
:100E60000E9465056C2F6460C8010E9465056C2FA7
:100E70006B7FC8010E94650583EC90E00197F1F754
:100E8000CF911F910F9108950F931F93CF93DF93ED
:100E90008C01D62FC42F607F642B0E942B0780E12A
:100EA000D89FB00111246C2BC801DF91CF911F9105
:100EB0000F910C942B07CF93DF93CDB7DEB7289714
:100EC0000FB6F894DEBF0FBECDBF98E0ECE0F1E0C6
:100ED000DE01119601900D929A95E1F79091D80557
:100EE000961710F46FEF690F262F30E0220F331F93
:100EF00041E050E04C0F5D1F240F351FF901608168
:100F0000680F606840E08FEC95E028960FB6F89483
:100F1000DEBF0FBECDBFDF91CF910C94440740E000
:100F200061E08FEC95E00E9444078BE39FE101971D
:100F3000F1F7089541E00E94440781E090E00895B0
:100F40000F931F93E7EEF0E06491E3EDF0E0E4919E
:100F5000F0E0EE0FFF1FEF53FF4F8591949100E4F7
:100F600012E42FE030E040E00E94890D6115710528
:100F70008105910529F06F5F7F4F8F4F9F4F9F70C5
:100F80001F910F91089585ED8093BC00809102021E
:100F900090910302A0910402B09105020796A11D51
:100FA000B11D23E0B695A795979587952A95D1F71A
:100FB0002091BC0024FD03C010924F02089540917F
:100FC0000202509103026091040270910502452BC8
:100FD000462B472B69F30097A105B10541F025E3A6
:100FE0002A95F1F700000197A109B109E1CF80919D
:100FF00001020C941702FB0101900020E9F73197E0
:10100000AF01461B570BDC01ED91FC910280F3818F
:10101000E02D0994CF93DF93BC0189E992E00E940F
:10102000FB07EC0164E471E089E992E00E94FB07B0
:101030008C0F9D1FDF91CF9108958F929F92AF9259
:10104000BF92CF92DF92EF92FF920F931F93CF93B5
:10105000DF93CDB7DEB7A1970FB6F894DEBF0FBE12
:10106000CDBF6B017C01F7FE43C06DE289E992E0E0
:101070000E9494038C0122273327A9012C193D09D2
:101080004E095F0919A2CE0181967C019AE0892E52
:10109000912CA12CB12CCA01B901A50194010E9487
:1010A0003714605DF70162937F0121153105410519
:1010B000510589F790E080E0309729F0BF0189E978
:1010C00092E00E94FB07800F911FA1960FB6F89443
:1010D000DEBF0FBECDBFDF91CF911F910F91FF906B
:1010E000EF90DF90CF90BF90AF909F908F9008953A
:1010F000AC019B0119A28E010F5D1F4F8AE0C82E23
:10110000D12CE12CF12CCA01B901A70196010E9452
:101110003714605DF80162938F0121153105410597
:10112000510589F790E080E0309779F2BF0189E9B5
:1011300092E00E94FB07C9CF7F928F929F92AF925D
:10114000BF92CF92DF92EF92FF920F931F93CF93B4
:10115000DF9300D000D000D0CDB7DEB760E086E0EE
:101160000E94CB0160E087E00E94CB0161E086E055
:101170000E94CB0161E087E00E94CB0160E086E045
:101180000E94CB0161E087E00E94CB010E94CB026C
:101190004B015C0180918B0290918C02892B09F0AC
:1011A00082C06CE271E080E090E00E94990260EA07
:1011B00070E08EE593E00E9450060E948F0796E053
:1011C000792E0E94A00770938A02609389020E9480
:1011D000A00770938802609387020E94A0076B01AA
:1011E0006091890270918A020091870210918802B1
:1011F00080910401909105019C0121503109729E5A
:10120000F001739EF00D1124EB58FD4F7183608344
:1012100013830283D582C482789EF001799EF00DFB
:101220001124EB58FD4F8F81988591838083072E81
:10123000000C880B990B0E941D08B801110F880B38
:10124000990B0E941D08B601DD0C880B990B0E94BA
:101250001D0886E491E00E940A080E94CB026819EA
:1012600079098A099B09603D77408105910508F459
:10127000A8CF62E370E08EE593E00E9450062696C8
:101280000FB6F894DEBF0FBECDBFDF91CF911F9197
:101290000F91FF90EF90DF90CF90BF90AF909F9015
:1012A0008F907F9008950E94A00770938A026093A8
:1012B00089020E94A00770938802609387020E94AF
:1012C000A0076B016091890270918A027A83698319
:1012D00000918702109188021C830B83DE82CD82ED
:1012E000072E000C880B990B0E941D08B801110FE6
:1012F000880B990B0E941D08B601DD0C880B990B19
:101300000E941D0886E491E00E940A0870E060E0F7
:1013100086E0F82EDE011196F69EF001F79EF00DA4
:101320001124EB58FD4F30E020E0C901860F971FD4
:10133000AD90BD9000811181650143E0C40ED11CC8
:10134000C016D1063CF0A5014250510904171507FB
:101350000CF095CF2F5F3F4F38962330310529F79A
:1013600062E070E0892BB1F28FEF9FEF88CF0C9491
:10137000FB070F931F93CF93DF93EC018881998133
:10138000009759F02A813B812617370730F081E01A
:10139000DF91CF911F910F9108958B016F5F7F4F68
:1013A0000E94B315009759F0998388831B830A83A1
:1013B0002C813D81232B59F7FC011082E8CF80E07E
:1013C000E7CF8F929F92AF92BF92CF92DF92EF9230
:1013D000FF920F931F93CF93DF9300D0CDB7DEB76B
:1013E000009779F18B017C010E94C5134C01D12C2F
:1013F000C12CC814D9042CF5F701EC0DFD1DE491A6
:10140000E9831A82F801A480B580FFEFAF1ABF0A02
:10141000B501C8010E94B909882379F0F80120813B
:10142000318184819581BE016F5F7F4F820F931F51
:101430000E947916F801B582A482FFEFCF1ADF0A65
:10144000D8CF0F900F90DF91CF911F910F91FF9008
:10145000EF90DF90CF90BF90AF909F908F900895C6
:101460000F931F93CF93DF9300D000D000D0CDB760
:10147000DEB78C011A8219821C821B821E821D8299
:1014800070E060E0CE0101960E94B90929813A819D
:1014900081116CC02115310519F0C9010E942A156E
:1014A0001A8219821E821D821C821B82BE016F5FFE
:1014B0007F4FC8010E94E10960E080E00E945B0765
:1014C00067E471E08FEC95E00E94B7096D817E8141
:1014D00084E190E00E947414862F61E08F5F0E9487
:1014E0005B074D815E8169817A818FEC95E00E9476
:1014F000F40262E080E00E945B0767E471E08FEC39
:1015000095E00E94B70963E084E00E945B0741E038
:101510006FE78FEC95E00E9444076DE571E08FEC7A
:1015200095E00E94B70941E06EE78FEC95E00E94DC
:1015300044076CE571E08FEC95E00E94B7096FE518
:1015400071E08FEC95E00E94B70989819A8100973C
:1015500011F00E942A1526960FB6F894DEBF0FBE32
:10156000CDBFDF91CF911F910F9108951E821D82F3
:1015700066E471E0C9010E94791698CF1F920F921C
:101580000FB60F9211242F933F934F935F936F9356
:101590007F938F939F93AF93BF93EF93FF9380912C
:1015A000B900887F803609F44AC0F0F5883209F422
:1015B000A7C018F5803109F49BC0B8F4882309F45A
:1015C000F9C0883009F494C0FF91EF91BF91AF91B9
:1015D0009F918F917F916F915F914F913F912F914B
:1015E0000F900FBE0F901F901895883109F488C096
:1015F000803251F780934E0214C0803409F49DC0AC
:1016000040F48033B9F38833F9F680934E0285ECC9
:10161000B0C0803509F485C0883509F496C0883497
:1016200099F60E94C307D0CF883909F48CC038F5E9
:10163000883729F050F4883611F0803729F683E096
:1016400080934F0210924D0257C0883809F47BC036
:10165000803919F0803809F0B7CF80914D0280327F
:1016600008F071C0E0914D0281E08E0F80934D0231
:101670008091BB00F0E0E35DFD4F80833DC0803B87
:1016800039F0E0F4803A09F479C0883A09F09CCF47
:1016900084E080934F0210922A0210922902E09176
:1016A0002702F091280209958091290281110FC02B
:1016B00081E0809329021092070209C0803C09F45E
:1016C000A6CF883C09F4A3CF883B09F07DCFE091F9
:1016D0002A0281E08E0F80932A02F0E0E95FFD4F3D
:1016E00080818093BB0090912A028091290229C0B9
:1016F000809174028093BB0085EC8093BC0064CF22
:101700009091730280917202981758F5E0917302DC
:1017100081E08E0F80937302F0E0EE5AFD4F8081DE
:10172000E9CFE091730281E08E0F80937302809184
:10173000BB00F0E0EE5AFD4F8083909173028091E0
:1017400072029817C8F285E8D8CFE091730281E061
:101750008E0F809373028091BB00F0E0EE5AFD4F34
:1017600080838091510281115CCF81E0809350028F
:1017700084EA8093BC0010924F0226CF85EC8093C0
:10178000BC0010924F0280914D02803230F4E09103
:101790004D02F0E0E35DFD4F108260914D0270E07C
:1017A000E0912B02F0912C028DE292E009951092CB
:1017B0004D020ACF10924E0234CF1F920F920FB6F5
:1017C0000F9211242F933F938F939F93AF93BF93C7
:1017D0008091B4019091B501A091B601B091B7018B
:1017E0003091B30123E0230F2D3758F50196A11D49
:1017F000B11D2093B3018093B4019093B501A093E0
:10180000B601B093B7018091B8019091B901A09150
:10181000BA01B091BB010196A11DB11D8093B80121
:101820009093B901A093BA01B093BB01BF91AF915E
:101830009F918F913F912F910F900FBE0F901F900E
:10184000189526E8230F0296A11DB11DD2CF1F9235
:101850000F920FB60F9211242F933F934F935F93E4
:101860006F937F938F939F93AF93BF93EF93FF9368
:10187000E0910201F09103010995FF91EF91BF9171
:10188000AF919F918F917F916F915F914F913F9118
:101890002F910F900FBE0F901F9018951F920F92CF
:1018A0000FB60F9211242F933F934F935F936F9333
:1018B0007F938F939F93AF93BF93EF93FF93E091A9
:1018C0000001F09101010995FF91EF91BF91AF9156
:1018D0009F918F917F916F915F914F913F912F9148
:1018E0000F900FBE0F901F9018951F920F920FB67A
:1018F0000F9211242F933F934F935F936F937F9396
:101900008F939F93AF93BF93EF93FF9389E992E0F7
:101910000E947203FF91EF91BF91AF919F918F91C0
:101920007F916F915F914F913F912F910F900FBEDB
:101930000F901F9018951F920F920FB60F921124BF
:101940002F938F939F93EF93FF93E091A902F091D0
:10195000AA028081E091AF02F091B00282FD1BC02B
:1019600090818091B2028F5F8F732091B3028217B2
:1019700041F0E091B202F0E0E756FD4F958F809381
:10198000B202FF91EF919F918F912F910F900FBE17
:101990000F901F9018958081F4CF1F920F920FB671
:1019A0000F9211242F933F934F935F936F937F93E5
:1019B0008F939F93AF93BF93CF93DF93EF93FF9357
:1019C0008091AE01C0915A03D0E087FF24C01092ED
:1019D0008500109284008091AE018F5F8093AE01EC
:1019E0008091AE01082E000C990B8C179D0724F4F2
:1019F0008091AE018C30C4F180918400909185007B
:101A0000049680349C4908F47AC0809184009091B7
:101A10008500049676C08091AE01082E000C990BCB
:101A20008C179D07C4F6E091AE018E2FEE0F990B37
:101A3000FC01EE0FFF1FE80FF91FEA5CFC4F8081ED
:101A400086FFC9CFE091AE018E2FEE0F990BFC01FE
:101A5000EE0FFF1FE80FF91FEA5CFC4F808160E08A
:101A60008F730E94CB01B7CF209184003091850005
:101A7000E091AE018E2FEE0F990BFC01EE0FFF1FD0
:101A8000E80FF91FEA5CFC4F81819281820F931F5E
:101A90009093890080938800E091AE018E2FEE0F25
:101AA000990BFC01EE0FFF1FE80FF91FEA5CFC4FDA
:101AB000808186FF11C0E091AE018E2FEE0F990B51
:101AC000FC01EE0FFF1FE80FF91FEA5CFC4F80815D
:101AD00061E08F730E94CB01FF91EF91DF91CF9175
:101AE000BF91AF919F918F917F916F915F914F9136
:101AF0003F912F910F900FBE0F901F90189580E48B
:101B00009CE990938900809388008FEF8093AE01C9
:101B1000E3CFCF92DF92EF92FF920F931F93E82FC4
:101B2000F92F05C0015011092109310961F1908196
:101B300096239417B9F305C0015011092109310901
:101B400011F1908196239413F7CFC12CD12CE12C65
:101B5000F12C0AC08FEFC81AD80AE80AF80A0C1547
:101B60001D052E053F0579F080818623841791F3AA
:101B70006C2D7D2D8E2D9F2D1F910F91FF90EF903D
:101B8000DF90CF90089560E070E080E090E01F91DA
:101B90000F91FF90EF90DF90CF900895CF92DF925A
:101BA000EF92FF920F931F93CF93DF9310929002C7
:101BB00010928F0288EE93E0A0E0B0E08093910253
:101BC00090939202A0939302B093940228E131E0A3
:101BD00030938E0220938D0210929C0210929B02F1
:101BE00080939D0290939E02A0939F02B093A002C7
:101BF0008AE291E090939A028093990285EC90E0BA
:101C00009093A6028093A50284EC90E09093A802A2
:101C10008093A70280EC90E09093AA028093A9029F
:101C200081EC90E09093AC028093AB0282EC90E068
:101C30009093AE028093AD0286EC90E09093B00258
:101C40008093AF021092B2021092B3021092B402CB
:101C50001092B5021092D2051092D1058CE391E05A
:101C60009093D0058093CF0587E28093D30584E1DC
:101C70008093D70584E08093D8051092D90588E039
:101C80008093DA0542E3C42ED12CD0929805C092FD
:101C9000970550E9E52EFF24F394F0929A05E0921F
:101CA000990500E213E010939C0500939B051092A8
:101CB000A00510929F051092A2051092A105109206
:101CC000A4051092A3051092A6051092A5051092E6
:101CD000A8051092A7051092AA051092A9051092C6
:101CE000AC051092AB051092AE051092AD051092A6
:101CF000B0051092AF051092B2051092B105109286
:101D0000B4051092B3051092B6051092B505109265
:101D1000B8051092B7051092BA051092B905109245
:101D2000BE051092BD051092C0051092BF0510921D
:101D3000C2051092C1051092C4051092C3051092FD
:101D4000C6051092C505C1E0D0E0D093CE05C09382
:101D5000CD058AE090E09093960580939505D09309
:101D60009E05C0939D0560E00E943802D0925E05FA
:101D7000C0925D05F0926005E0925F0510936205E8
:101D80000093610510926605109265051092680532
:101D90001092670510926A051092690510926C0501
:101DA00010926B0510926E0510926D0510927005E1
:101DB00010926F05109272051092710510927405C1
:101DC00010927305109276051092750510927805A1
:101DD0001092770510927A051092790510927C0581
:101DE00010927B0510927E0510927D051092800561
:101DF00010927F051092840510928305109286053B
:101E000010928505109288051092870510928A0518
:101E10001092890510928C0510928B05D093940531
:101E2000C093930582E090E090935C0580935B05FE
:101E3000D0936405C093630560E00E943802E1E638
:101E4000F3E086E491E0918380831382128214820E
:101E5000359625E0E535F207B1F710925805109256
:101E60005705109256051092550510925A0510927A
:101E7000590580915A038C3088F591E0980F909322
:101E80005A0380935E0390E0FC01EE0FFF1FE80F02
:101E9000F91FEA5CFC4F88EB9BE092838183809181
:101EA0005A038C30F8F491E0980F90935A03809382
:101EB0005B0390E0FC01EE0FFF1FE80FF91FEA5CE7
:101EC000FC4F88EB9BE092838183DF91CF911F9140
:101ED0000F91FF90EF90DF90CF9008958FEF809358
:101EE0005E03DDCF8FEF80935B03EFCFCF93DF9364
:101EF00000D000D000D0CDB7DEB7789484B5826032
:101F000084BD84B5816084BD85B5826085BD85B59D
:101F1000816085BD80916E00816080936E0010921B
:101F20008100809181008260809381008091810096
:101F30008160809381008091800081608093800027
:101F40008091B10084608093B1008091B000816085
:101F50008093B00080917A00846080937A008091B1
:101F60007A00826080937A0080917A008160809309
:101F70007A0080917A00806880937A001092C10084
:101F800061E084E00E94380261E085E00E9438024E
:101F900061E086E00E94380261E087E00E9438023A
:101FA00060E088E00E94380260E08AE00E94380227
:101FB00060E082E00E94380269E070E08EE593E024
:101FC0000E94B30662E370E08EE593E00E94500643
:101FD0006BE070E08BE593E00E94B30662E370E093
:101FE0008BE593E00E94500661E084E00E94CB0103
:101FF00060E085E00E94CB011092FE011092FD018D
:10200000109200021092FF010E94F9018AE191E012
:1020100090932802809327028BE191E090932C0209
:1020200080932B021092D4058091D805823018F04D
:1020300098E09093D4059091D905992339F0813097
:1020400029F48091D40584608093D40562E370E024
:1020500080E090E00E9499026091DA058FEC95E0B3
:102060000E94650568EE73E080E090E00E949902AE
:1020700060E38FEC95E00E942B070BE416E4C801A7
:102080000197F1F760E38FEC95E00E942B07C80100
:102090000197F1F760E38FEC95E00E942B0783E551
:1020A00092E00197F1F760E28FEC95E00E942B0738
:1020B0006091D405606240E08FEC95E00E94440797
:1020C00084E08093D50540E06CE08FEC95E00E94C1
:1020D00044070E948F0782E08093D60540E066E0C7
:1020E0008FEC95E00E94440740E062E08FEC95E0C1
:1020F0000E9444078BE39FE10197F1F788E080930A
:10210000DA0560E08FEC95E00E9465050E948F077C
:1021100060E080E00E945B0767E471E08FEC95E08F
:102120000E94B70961E080E00E945B076AE671E007
:102130008FEC95E00E94B70962E080E00E945B07A7
:1021400067E471E08FEC95E00E94B7096CED75E0F3
:1021500080E090E00E9499020E948F0750E040E0EA
:1021600060E970E090E080E00E94CF0041E050E044
:1021700067E870E090E080E00E94CF0042E050E02D
:1021800067E770E090E080E00E94CF0043E050E01D
:1021900068E670E081E090E00E94CF001092580560
:1021A00010925705C0906103D09062038DE791E0D3
:1021B0000E940A0801E613E0F12CE12C80915905F8
:1021C00090915A05E816F9060CF06AC0B12CA12CC2
:1021D000D80114968C918A151B0459F054F06CE5C3
:1021E00071E089E992E00E94B709BFEFAB1ABB0A20
:1021F000EFCFF801A080B1801A8219821C821B8265
:102200001E821D8270E060E0CE0101960E94B90935
:1022100029813A8181113CC02115310519F0C9018C
:102220000E942A151A8219821E821D821C821B821C
:10223000BE016F5F7F4FC5010E94E1094D815E8144
:1022400069817A8189E992E00E94F40263E871E091
:1022500089E992E00E94B709D80112966D917C91AC
:10226000072E000C880B990B0E941D0864E471E096
:1022700089E992E00E94FB0789819A81009711F019
:102280000E942A15BFEFEB1AFB0A0B5F1F4F96CF78
:102290001E821D8266E471E0C9010E947916C8CFD2
:1022A000C6010E94300A87ED92E09093A6058093C4
:1022B000A5058091CD059091CE058230910514F44D
:1022C00082E090E09093CE058093CD058EED92E074
:1022D0009093A00580939F0585EE92E09093B205C0
:1022E0008093B1058CEE92E090936605809365052E
:1022F0008FE097E090930101809300018091690045
:102300008C7F816080936900E89AE091A902F09146
:10231000AA0282E08083E091A502F091A6021082D9
:10232000E091A702F091A8028FEC80831092B10295
:10233000E091AD02F091AE0286E08083E091AB02C5
:10234000F091AC02808180618083E091AB02F091DA
:10235000AC02808188608083E091AB02F091AC0296
:10236000808180688083E091AB02F091AC02808133
:102370008F7D808387E8282E82E0382E3E01E7E0BB
:102380006E0E711C95E0592E20E0822E20E0922ED8
:10239000EE24E394F12C4424439480918B02909199
:1023A0008C02892B09F023C18091B1019091B20177
:1023B0008230910509F4A3C008F044C0019709F4E4
:1023C00075C08091570590915805589EF001599E0F
:1023D000F00D1124EF59FC4F02811381808191810E
:1023E0000E94300A8091B1019091B201039761F48B
:1023F0008091B001811108C00115110509F4A3C035
:102400000330110509F4ACC01092B2011092B10171
:1024100085E995E00E9401048BE595E00E940104A6
:102420006AE070E080E090E00E94990281149104DB
:1024300009F4B3CF0E945E03882309F4AECF0E9453
:102440000000A9CF8330910531F0049709F0B9CF8E
:102450000E94A500B6CF1092B001809157059091CF
:10246000580501962091590530915A058217930716
:102470000CF0A7CF589E9001599E300D1124F90100
:10248000EF59FC4F4481245A3C4FD90114962C91AA
:1024900030E02F5F3F4F4217130609F092CF909321
:1024A0005805809357054092B0018BCF8091570516
:1024B000909158052091590530915A05589EF00188
:1024C000599EF00D1124EF59FC4F0196DF01821740
:1024D00093070CF076CF19965C91199744815417A5
:1024E00008F46FCF541308C08F3F980729F09093DA
:1024F00058058093570565CF01961596E8CF409112
:10250000570550915805141615060CF05ACFCA01FC
:102510000197549E9001559E300D1124F901E05A07
:10252000FC4F2F593C4F8F3F980709F44ACF5081F9
:10253000D90114964C91541708F443CF359754178A
:10254000B1F20197F0CF6CE271E080E090E00E9480
:1025500099020E948F07F0928C02E0928B0254CF76
:1025600080918B0290918C02892B09F04DCF68EC01
:1025700070E080E090E00E9499020E948F076091D5
:10258000040170910501072E000C880B990B0E9425
:102590001D0864E471E089E992E00E94FB070E9453
:1025A0009C0880910401909105010397B1F4E7E83C
:1025B000F2E0B2E0E738FB0741F0118210821382AB
:1025C0001282158214823696F4CFF0920501E092C1
:1025D0000401F0928C02E0928B02809104019091B0
:1025E0000501019690930501809304010DCF05E745
:1025F00012E05801D12CC12CF501619171915F015C
:10260000072E000C880B990B0E941D086AE571E0EB
:1026100089E992E00E94B709FFEFCF1ADF0A23E0B1
:10262000C216D10449F78AE591E00E940A080A5FC0
:102630001F4F20163106E9F688E591E00E940A084E
:1026400068EE73E080E090E00E94990260EA70E03A
:102650008EE593E00E9450060E94CB025B016C0164
:102660001A8219821C821B821E821D820E949C0873
:10267000009709F078C089819A8101969A838983AD
:102680000E94CB026A197B098C099D09603D774045
:102690008105910558F349815A81CA0157FF02C04B
:1026A00090E080E02B813C8110E000E082179307EE
:1026B0001CF4C90101E010E06D817E818617970747
:1026C00014F402E010E04830510544F4283031059C
:1026D0002CF46830710514F40FEF1FEFCE01019652
:1026E0006C01D6016D917D916D01072E000C880B58
:1026F000990B0E941D0866E871E089E992E00E944A
:10270000B709C614D70469F786E491E00E940A0865
:102710000E948F0762E971E00130110559F06AE902
:1027200071E00230110531F06AE871E0012B11F01F
:1027300062EA71E08FEC95E00E94B70962E370E015
:102740008EE593E00E94500660ED77E080E090E037
:102750000E9499020E948F076AE070E08BE593E087
:102760000E94500655CE8130910531F48B819C81B9
:1027700001969C838B8384CF029709F081CF8D8152
:102780009E8101969E838D837BCFFC010590002066
:10279000E9F7809590958E0F9F1F0895052E97FB62
:1027A0001EF400940E94E51357FD07D00E943714D1
:1027B00007FC03D04EF40C94E513509540953095EA
:1027C00021953F4F4F4F5F4F08959095809570959D
:1027D00061957F4F8F4F9F4F08950E945914A59F79
:1027E000900DB49F900DA49F800D911D112408950C
:1027F000B7FF0C94ED130E94ED13821B930B089509
:102800002F923F924F925F926F927F928F929F9200
:10281000AF92BF92CF92DF92EF92FF920F931F93EE
:10282000CF93DF93CDB7DEB7CA1BDB0B0FB6F8949F
:10283000DEBF0FBECDBF09942A88398848885F84DF
:102840006E847D848C849B84AA84B984C884DF8050
:10285000EE80FD800C811B81AA81B981CE0FD11D34
:102860000FB6F894DEBF0FBECDBFED010895A1E213
:102870001A2EAA1BBB1BFD010DC0AA1FBB1FEE1FFA
:10288000FF1FA217B307E407F50720F0A21BB30B45
:10289000E40BF50B661F771F881F991F1A9469F7C1
:1028A00060957095809590959B01AC01BD01CF011D
:1028B0000895A29FB001B39FC001A39F700D811D19
:1028C0001124911DB29F700D811D1124911D089539
:1028D000991B79E004C0991F961708F0961B881F72
:1028E0007A95C9F780950895AA1BBB1B51E107C0D3
:1028F000AA1FBB1FA617B70710F0A61BB70B881F90
:10290000991F5A95A9F780959095BC01CD0108951E
:10291000EE0FFF1F0590F491E02D09940F931F9384
:10292000CF93DF938230910510F482E090E0E09144
:10293000DD05F091DE0530E020E0B0E0A0E030976A
:1029400099F42115310509F44AC0281B390B2430AC
:102950003105D8F58A819B816115710589F1FB01EB
:1029600093838283FE0111C04081518102811381D2
:1029700048175907E0F04817590799F4109761F084
:1029800012960C93129713961C933296CF01DF91F7
:10299000CF911F910F9108950093DD051093DE05EF
:1029A000F4CF2115310551F04217530738F0A90132
:1029B000DB019A01BD01DF01F801C1CFEF01F9CFC1
:1029C0009093DE058093DD05CDCFFE01E20FF31F6E
:1029D000819391932250310939832883D7CF209155
:1029E000DB053091DC05232B41F420910801309167
:1029F00009013093DC052093DB052091060130911D
:102A000007012115310541F42DB73EB740910A0168
:102A100050910B01241B350BE091DB05F091DC0597
:102A2000E217F307A0F42E1B3F0B2817390778F0A5
:102A3000AC014E5F5F4F2417350748F04E0F5F1F04
:102A40005093DC054093DB05819391939FCFF0E099
:102A5000E0E09CCFCF93DF930097E9F0FC01329741
:102A600013821282A091DD05B091DE05ED0130E008
:102A700020E01097A1F420813181820F931F2091D3
:102A8000DB053091DC052817390709F061C0F093A8
:102A9000DC05E093DB05DF91CF910895EA01CE17C5
:102AA000DF07E8F54A815B819E0141155105B1F7C9
:102AB000E901FB83EA8349915991C40FD51FEC17B3
:102AC000FD0761F4808191810296840F951FE901D1
:102AD00099838883828193819B838A83F0E0E0E0FD
:102AE00012968D919C9113970097B9F52D913C9179
:102AF0001197CD010296820F931F2091DB05309133
:102B0000DC052817390739F6309751F51092DE05A4
:102B10001092DD05B093DC05A093DB05BCCFD38319
:102B2000C28340815181840F951FC817D90761F472
:102B30004E5F5F4F88819981480F591F51834083B1
:102B40008A819B81938382832115310509F0B0CF5F
:102B5000F093DE05E093DD059ECFFD01DC01C0CFE3
:102B600013821282D7CFB0E0A0E0E9EBF5E10C943C
:102B700002148C01009751F4CB010E948E148C0139
:102B8000C801CDB7DEB7E0E10C941E14FC01E60FDE
:102B9000F71F9C0122503109E217F30708F49DC08A
:102BA000D901CD91DC911197C617D70798F0C530A0
:102BB000D10530F3CE0104978617970708F3C61B9B
:102BC000D70B2297C193D1936D937C93CF010E9431
:102BD0002A15D6CF5B01AC1ABD0A4C018C0E9D1E86
:102BE000A091DD05B091DE05512C412CF12CE12C9A
:102BF000109731F58091DB059091DC0588159905DA
:102C000009F05CC04616570608F058C080910601CE
:102C100090910701009741F48DB79EB740910A014A
:102C200050910B01841B950BE817F90708F055C06C
:102C3000F093DC05E093DB05F90171836083A0CF9D
:102C40008D919C91119712966C90129713967C908F
:102C50001397A815B90559F56C0142E0C40ED11CB3
:102C6000CA14DB0420F1AC014A195B09DA0112969F
:102C7000159780F06282738251834083D9016D93EE
:102C80007C93E114F10471F0D7011396FC93EE9359
:102C9000129776CF22968C0F9D1FF9019183808326
:102CA000F301EFCFF093DE05E093DD0569CF481621
:102CB000590608F42C017D01D3019ACFCB010E9463
:102CC0008E147C01009749F0AE01B8010E94701685
:102CD000C8010E942A15870153CF10E000E050CFB1
:102CE000FB01DC0102C001900D9241505040D8F729
:102CF0000895FB01DC0101900D920020E1F7089599
:042D0000F894FFCF75
:102D0400F302F30201000000DF0580000000400030
:102D14001400540000000000730146014D061C011C
:102D24003F012C011D01000000009403F402210363
:102D3400E103520330034403000000009A07F40245
:102D44004D064C060D0A002D2D2D2D2D2D2D2D2D2E
:102D54002D2D2D2D2D2D2D2D2D2D2D0020200045FB
:102D64006E7465722F457869740020204172647511
:102D7400696E6F205472696469636B61006D656E7E
:102D8400753A002C2000202D2000426172766120CB
:102D940031004261727661203200426172766120B4
:0E2DA40033004A696E61206261727661000040
:00000001FF
