:100000000C947B000C941F0D0C94F80C0C94A30022
:100010000C94A3000C94A3000C94A3000C94A300D4
:100020000C94A3000C94A3000C94A3000C949E0DBC
:100030000C94A3000C94A3000C94A3000C94A300B4
:100040000C94AE0C0C94A3000C946C0D0C94460D07
:100050000C94A3000C94A3000C94A3000C94A30094
:100060000C948F0B0C94A30056686F647465207019
:100070007265646D657400332E205072696461741A
:1000800020626172767500322E20526573657400AD
:10009000312E205354415254000000000024002708
:1000A000002A0000000000250028002B00000000AE
:1000B0000800020100000304070000000000000027
:1000C00000000000002300260029000404040404AA
:1000D00004040402020202020203030303030301F5
:1000E00002040810204080010204081020010204CC
:1000F00008102000DE0E11241FBECFEFD8E0DEBFB7
:10010000CDBF11E0A0E0B1E0E0E9FFE202C0059060
:100110000D92A23BB107D9F726E0A2EBB1E001C0F6
:100120001D92A632B207E1F710E0CBE7D0E004C0A1
:100130002197FE010E94CE15CA37D107C9F70E9448
:10014000AB0F0C94C6170C9400008091640590913D
:10015000650525E0289FF001299FF00D1124DF019E
:10016000A259BC4F14964C914423C1F0181619069D
:10017000ACF40197E359FC4F50E08F3F980771F0C2
:10018000208130E02F5F3F4F35972417350711F05E
:100190000197F3CF909365058093640508952091AE
:1001A00064053091650524363105E4F495E0929FAD
:1001B000F001939FF00D1124E259FC4F718360838D
:1001C0005383428384832F5F3F4F30936505209391
:1001D0006405809166059091670501969093670587
:1001E00080936605089520913602260F3327331F2A
:1001F00021323105ECF420915C02FC0190E080E0BA
:10020000243069F082E00895A09136022191AC017A
:100210004C5E5D4FA40FB52FB11D2C930196861730
:1002200098F380913602680F6093360280E008955B
:1002300081E00895089508950895E0910B0280915A
:100240000A02E81730F4F0E0E651FE4F808190E0BA
:1002500008958FEF9FEF089590910B0280910A020D
:100260002FEF3FEF981748F4E92FF0E0E651FE4FEB
:10027000208130E09F5F90930B02C9010895809127
:100280000A0290910B02891B990B0895CF92DF927D
:10029000EF92FF920F931F93CF93DF937C01CB01DB
:1002A0008A012091E901222389F0EB016B01C40E40
:1002B000D51ECC15DD0569F06991D701ED91FC9152
:1002C0000190F081E02DC7010995F3CF642F0E94C2
:1002D000F300C801DF91CF911F910F91FF90EF9034
:1002E000DF90CF900895CF93DF931F92CDB7DEB705
:1002F00069832091E9012223F9F020910C02203238
:1003000058F021E030E0FC013383228390E080E06C
:100310000F90DF91CF91089580910D02E82FF0E0CA
:10032000E753FE4F998190838F5F80930D028093F6
:100330000C0281E090E0ECCF61E0CE0101960E94DA
:10034000F300F7CF833081F028F4813099F08230C8
:10035000A9F008958730A9F08830C9F08430B1F44D
:10036000809180008F7D03C0809180008F77809383
:100370008000089584B58F7784BD089584B58F7DFE
:10038000FBCF8091B0008F778093B000089580916B
:10039000B0008F7DF9CF1F93CF93DF93282F30E0EC
:1003A000F901E355FF4F8491F901E152FF4FD491D8
:1003B000F901E553FF4FC491CC23A9F0162F811109
:1003C0000E94A201EC2FF0E0EE0FFF1FED55FF4F52
:1003D000A591B4918FB7F894EC91111108C0D09504
:1003E000DE23DC938FBFDF91CF911F910895DE2B29
:1003F000F8CF10925C0281E080935E0210925D0261
:1004000061E082E10E94CB0161E083E10E94CB01C7
:10041000E9EBF0E080818E7F808380818D7F808317
:1004200088E48093B80085E48093BC000895CF935E
:10043000DF9391E0909313028823B9F0C091B80044
:10044000D091BA008091BC008A7B8093BC0060E0B0
:1004500082E10E94CB0160E083E10E94CB010E9417
:10046000F901D093BA00C093B800DF91CF910895FD
:10047000CF93DF9390E0FC01E152FF4F249185532D
:100480009F4FFC0184918823C9F090E0880F991F49
:10049000FC01E756FF4FA591B491FC01ED55FF4FCC
:1004A000C591D49161110DC09FB7F8948C9120959E
:1004B00082238C938881282328839FBFDF91CF914B
:1004C0000895623051F49FB7F8943C91822F809543
:1004D00083238C93E8812E2BEFCF8FB7F894EC9188
:1004E0002E2B2C938FBFEACF3FB7F8948091C50194
:1004F0009091C601A091C701B091C80126B5A89BF3
:1005000005C02F3F19F00196A11DB11D3FBFBA2FA5
:10051000A92F982F8827BC01CD01620F711D811D65
:10052000911D42E0660F771F881F991F4A95D1F7EA
:1005300008958F929F92AF92BF92CF92DF92EF92E7
:10054000FF924B015C010E9474026B017C010E94CE
:1005500074026C197D098E099F09683E73408105FC
:100560009105A8F321E0821A9108A108B10888EE4C
:10057000C80E83E0D81EE11CF11C81149104A10473
:10058000B10429F7FF90EF90DF90CF90BF90AF902C
:100590009F908F9008952FB7F8946091C10170914A
:1005A000C2018091C3019091C4012FBF089581E0E1
:1005B00090E09093990280939802089584E090E0EF
:1005C0009093BF018093BE0108950895DB011496B6
:1005D0004D915C9115976D917C91DC01ED91FC91B1
:1005E0000280F381E02D0994AF92BF92CF92DF9207
:1005F000EF92FF920F931F93CF93DF936C017B01D8
:100600008B01040F151FEB015E01AE18BF08C01768
:10061000D10759F06991D601ED91FC910190F081DB
:10062000E02DC6010995892B79F7C501DF91CF919E
:100630001F910F91FF90EF90DF90CF90BF90AF9000
:100640000895FC01538D448D252F30E0842F90E0D8
:10065000821B930B541710F0CF96089501970895BD
:10066000FC01918D828D981761F0A28DAE0FBF2F86
:10067000B11D5D968C91928D9F5F9F73928F90E0DC
:1006800008958FEF9FEF0895FC01918D828D98174B
:1006900031F0828DE80FF11D858D90E008958FEF88
:1006A0009FEF0895FC01918D228D892F90E0805C51
:1006B0009F4F821B91098F739927089586EA92E0D4
:1006C0000E94520321E0892B09F420E0822F089533
:1006D00080E090E0892B29F00E945E0381110C9448
:1006E00000000895FC01A48DA80FB92FB11DA35AD5
:1006F000BF4F2C91848D90E001968F739927848F42
:10070000A689B7892C93A089B1898C918370806464
:100710008C93938D848D981306C00288F389E02D05
:1007200080818F7D80830895EF92FF920F931F93B6
:10073000CF93DF93EC0181E0888F9B8D8C8D981394
:100740001AC0E889F989808185FF15C09FB7F894A0
:10075000EE89FF896083E889F989808183708064EC
:1007600080839FBF81E090E0DF91CF911F910F9137
:10077000FF90EF900895F62E0B8D10E00F5F1F4F46
:100780000F731127E02E8C8D8E110CC00FB607FC55
:10079000FACFE889F989808185FFF5CFCE010E94E3
:1007A0007203F1CFEB8DEC0FFD2FF11DE35AFF4FDC
:1007B000F0829FB7F8940B8FEA89FB898081806271
:1007C000CFCFCF93DF93EC01888D8823B9F0AA892E
:1007D000BB89E889F9898C9185FD03C0808186FDFC
:1007E0000DC00FB607FCF7CF8C9185FFF2CF80814B
:1007F00085FFEDCFCE010E947203E9CFDF91CF914B
:1008000008958F929F92AF92BF92EF92FF920F93B3
:100810001F93CF93DF93FC012081318137FD6AC0A4
:10082000EC013327F901E355FF4F8491F901E152BF
:10083000FF4F0491F901E553FF4F14911123A1F1EA
:1008400081110E94A201E12FF0E0EE0FFF1FEF5394
:10085000FF4FA591B491EC910E2391E080E009F453
:1008600090E0092F182FE884F9840E94CB024B01F5
:100870005C018AA99BA9ACA9BDA9B501A401481B2B
:10088000590B6A0B7B0B8EA59FA58230910509F44D
:1008900078C06CF40097F9F081309105B1F199AB13
:1008A00088AB1FA61EA626C010E000E0DCCF863075
:1008B000910509F4CAC08730910509F4E5C0833079
:1008C000910569F7E016F10609F07AC099AB88AB9B
:1008D00081E090E031C0E016F10661F419AA18AA8F
:1008E00081E090E09FA78EA78AAA9BAAACAABDAA86
:1008F0001FAA1EAADF91CF911F910F91FF90EF9039
:10090000BF90AF909F908F900895E016F106D9F0B8
:100910000A811B8130E020E040175107620773070E
:1009200038F428A939A999AB88AB3FA72EA7E2CF05
:1009300099AB88AB82E090E09FA78EA78AAA9BAA7A
:10094000ACAABDAAD7CF8E819F81B0E0A0E084176A
:100950009507A607B70770F6EC8DFD8D309709F067
:100960000995EE8DFF8D309719F088A199A1099511
:100970008EA59FA599AB88AB86E090E09FA78EA738
:10098000B9CF8A809B80B12CA12CE016F10689F4A6
:10099000481559056A057B0520F28EA99FA9019685
:1009A0009FAB8EAB82E090E099AB88AB83E090E0A8
:1009B000E5CF481559056A057B0508F49BCFEDCFB7
:1009C0008EA99FA90C811D8130E020E00417150736
:1009D0002607370730F028AD39AD2817390709F059
:1009E00089CF81309105B9F4EA85FB85309709F00C
:1009F0000995EC85FD85309719F08E859F850995C1
:100A00001FA61EA619AA18AA1FAA1EAA1AAA1BAABE
:100A10001CAA1DAA6FCF029761F4E889F989309763
:100A200009F00995EA89FB89309751F38C899D89F2
:100A3000E6CFEE89FF89309709F00995E88DF98DA9
:100A40003097F1F28A8D9B8DDACFE016F10629F00E
:100A500099AB88AB87E090E06FCFE8A5F9A5309718
:100A600009F00995EAA5FBA5309709F443CF8CA5B9
:100A70009DA5DF91CF911F910F91FF90EF90BF90B7
:100A8000AF909F908F9009948A809B80B12CA12C6D
:100A9000E016F10699F4481559056A057B0508F436
:100AA00040CFEAA1FBA1309709F00995ECA1FDA187
:100AB000309709F4A5CF8EA19FA1A1CF4815590564
:100AC0006A057B0508F416CFECCFCF92DF92EF9248
:100AD000FF920F931F93CF93DF93FC01C48121E01A
:100AE0002093E901C093B30110920D0210920C0201
:100AF0008385682B8AE992E00E947301D0910C02F1
:100B0000D13208F092C00E9474026B017C01809186
:100B10005C02811165C082E080935C0281E0809379
:100B20005E028FEF80935B0210928002D0937F026F
:100B3000A9ECB1E0EFE5F2E080E0D81385C01092B7
:100B4000810280918102CC0FC82BC09381028091D9
:100B50005D02813009F07CC010925D020E94740237
:100B60006B017C01809181028093BB0080910F0218
:100B700090911002A0911102B0911202892B8A2B40
:100B80008B2B99F00E94740200910F0210911002B9
:100B900020911102309112026C197D098E099F0972
:100BA0000617170728073907E0F18091BC0083FD7D
:100BB000D9CF85EC8093BC000E9474026B017C014C
:100BC00080915C02823009F445C080915B028F3FC6
:100BD00061F180915B02803241F180915B0225C01E
:100BE00080910F0290911002A0911102B091120217
:100BF000892B8A2B8B2B09F48ACF0E9474020091D7
:100C00000F021091100220911102309112026C1902
:100C10007D098E099F09061717072807390708F06D
:100C200076CF80910E020E94170210920D02109250
:100C30000C021092E901DF91CF911F910F91FF906B
:100C4000EF90DF90CF9008959D9191938F5F75CF36
:100C500085EEB0CF80910F0290911002A091110209
:100C6000B0911202892B8A2B8B2B09F4A9CF0E94F9
:100C7000740200910F021091100220911102309124
:100C800012026C197D098E099F090617170728079C
:100C9000390708F095CFC5CF089590E080E008951A
:100CA0008F929F92AF92BF92FF920F931F93CF9319
:100CB000DF93FC01F0808BE08F1508F44AC082813D
:100CC00008E512E0081B110987FD1395000F111F9D
:100CD000000F111F8181C8E8D0E0C81BD10987FD32
:100CE000D395CC0FDD1FCC0FDD1F4E010D2E000C58
:100CF000AA08BB089801012E000C440B550B2819BB
:100D000039094A095B09DB010E943E1524EB30E0FA
:100D100040E050E00E941415820E931EA41EB51EE2
:100D20008C169D062CF0E801801691060CF4E40167
:100D30002297CC0FDD1F2FB7F8948F2D90E0FC0188
:100D4000EE0FFF1FE80FF91FED5BFC4FD283C1834D
:100D50002FBFDF91CF911F910F91FF90BF90AF9068
:100D60009F908F9008951F93CF93DF93EC01162FE0
:100D700088818C3008F04EC061E0812F0E943802DB
:100D80008881282F30E0F901EE0FFF1FE20FF31FDB
:100D9000ED5BFC4F1F736081607C612B6083198267
:100DA0001A822CE0622F0E94AE15829FB00111249E
:100DB00030E020E0AB01420F531FFA01EE0FFF1F9E
:100DC000E40FF51FED5BFC4F908196FD16C02F5F81
:100DD0003F4F2C30310571F781110FC01092800008
:100DE00082E0809381001092850010928400B19A75
:100DF00080916F00826080936F00E8818E2F90E079
:100E0000FC01EE0FFF1FE80FF91FED5BFC4F808127
:100E1000806480838881DF91CF911F9108958091B4
:100E200004019091050126E0289FF001299FF00D13
:100E30001124E458FD4F843091054CF41182108246
:100E4000138212821582148201963696F4CF81E0C5
:100E500090E090930501809304010895CF93DF9370
:100E6000C0919802D0919902C130D10599F46CE2F9
:100E700071E080E090E00E9499020E94A50010922B
:100E8000990210929802D0930501C093040181E069
:100E90008093BC01DF91CF9108950F931F93CF935F
:100EA0008C01C62F0E9465056C2F6460C8010E94EA
:100EB00065056C2F6B7FC8010E94650583EC90E08F
:100EC0000197F1F7CF911F910F9108950F931F9301
:100ED000CF93DF938C01D62FC42F607F642B0E94A9
:100EE0004D0780E1D89FB00111246C2BC801DF9120
:100EF000CF911F910F910C944D0740E061E086E186
:100F000096E00E9466078BE39FE10197F1F7089551
:100F10000E947D0783E090E09093BF018093BE0123
:100F200008950E947D0781E090E09093BF01809337
:100F3000BE0108950E947D0782E090E09093BF017A
:100F40008093BE010895CF93DF93CDB7DEB7289786
:100F50000FB6F894DEBF0FBECDBF98E0ECE0F1E035
:100F6000DE01119601900D929A95E1F790911F067E
:100F7000961710F46FEF690F262F30E0220F331F02
:100F800041E050E04C0F5D1F240F351FF9016081D7
:100F9000680F606840E086E196E028960FB6F89406
:100FA000DEBF0FBECDBFDF91CF910C94660741E04D
:100FB0000E94660781E090E008950F931F93E7EE8B
:100FC000F0E06491E3EDF0E0E491F0E0EE0FFF1F5C
:100FD000EF53FF4F8591949100E412E42FE030E04D
:100FE00040E00E945A0E611571058105910529F0B6
:100FF0006F5F7F4F8F4F9F4F9F701F910F9108958D
:10100000FB0101900020E9F73197AF01461B570B18
:10101000DC01ED91FC910280F381E02D0994CF93E6
:10102000DF93BC0186EA92E00E940008EC0164E4D0
:1010300071E086EA92E00E9400088C0F9D1FDF910C
:10104000CF9108958F929F92AF92BF92CF92DF92ED
:10105000EF92FF920F931F93CF93DF93CDB7DEB73D
:10106000A1970FB6F894DEBF0FBECDBF6B017C0118
:10107000F7FE43C06DE286EA92E00E9494038C0181
:1010800022273327A9012C193D094E095F0919A20E
:10109000CE0181967C019AE0892E912CA12CB12C55
:1010A000CA01B901A50194010E947D15605DF70197
:1010B00062937F01211531054105510589F790E0C3
:1010C00080E0309729F0BF0186EA92E00E94000894
:1010D000800F911FA1960FB6F894DEBF0FBECDBF53
:1010E000DF91CF911F910F91FF90EF90DF90CF9004
:1010F000BF90AF909F908F900895AC019B0119A273
:101100008E010F5D1F4F8AE0C82ED12CE12CF12CEF
:10111000CA01B901A70196010E947D15605DF80121
:1011200062938F01211531054105510589F790E042
:1011300080E0309779F2BF0186EA92E00E940008D1
:10114000C9CF7F928F929F92AF92BF92CF92DF9240
:10115000EF92FF920F931F93CF93DF9300D000D0B5
:1011600000D0CDB7DEB760E086E00E94CB0160E042
:1011700087E00E94CB0161E086E00E94CB0161E044
:1011800087E00E94CB0160E086E00E94CB0161E035
:1011900087E00E94CB010E94CB024B015C01809151
:1011A000980290919902892B09F082C06CE271E05B
:1011B00080E090E00E94990260EA70E08BE693E0A4
:1011C0000E9450060E947D0796E0792E0E94DD075E
:1011D00070939702609396020E94DD0770939502C8
:1011E000609394020E94DD076B01609196027091FA
:1011F00097020091940210919502809104019091C0
:1012000005019C0121503109729EF001739EF00D81
:101210001124EE57FD4F7183608313830283D582BF
:10122000C482789EF001799EF00D1124EE57FD4F97
:101230008F81988591838083072E000C880B990BF2
:101240000E942208B801110F880B990B0E942208F6
:10125000B601DD0C880B990B0E94220886E491E010
:101260000E940F080E94CB02681979098A099B091C
:10127000603D77408105910508F4A8CF62E370E0F6
:101280008BE693E00E94500626960FB6F894DEBFD8
:101290000FBECDBFDF91CF911F910F91FF90EF90C7
:1012A000DF90CF90BF90AF909F908F907F900895E8
:1012B0000E94DD0770939702609396020E94DD07FB
:1012C00070939502609394020E94DD076B01609118
:1012D0009602709197027A8369830091940210912B
:1012E00095021C830B83DE82CD82072E000C880BB7
:1012F000990B0E942208B801110F880B990B0E94CC
:101300002208B601DD0C880B990B0E94220886E4A6
:1013100091E00E940F0870E060E086E0F82EDE01A8
:101320001196F69EF001F79EF00D1124EE57FD4F39
:1013300030E020E0C901860F971FAD90BD9000817D
:10134000118165014FEFC41AD40AC016D1063CF0D2
:10135000A50141505109041715070CF095CF2F5FD7
:101360003F4F38962330310529F762E070E0892B32
:10137000B1F28FEF9FEF88CF0C94000885ED80933A
:10138000BC0080910F0290911002A0911102B091C7
:1013900012020796A11DB11D23E0B695A79597955A
:1013A00087952A95D1F72091BC0024FD03C01092A7
:1013B0005C02089540910F02509110026091110259
:1013C00070911202452B462B472B69F30097A1051C
:1013D000B10541F025E32A95F1F700000197A10935
:1013E000B109E1CF80910E020C941702CF93DF93E5
:1013F000EC0188819981009711F00E947016198282
:1014000018821D821C821B821A82DF91CF9108955F
:10141000FC0180819181009711F00C947016089561
:101420000F931F93CF93DF93EC01888199810097ED
:1014300059F02A813B812617370730F081E0DF9190
:10144000CF911F910F9108958B016F5F7F4F0E9485
:10145000F916009759F0998388831B830A832C819E
:101460003D81232B59F7FC011082E8CF80E0E7CFC4
:10147000EF92FF920F931F93CF93DF936115710546
:1014800041F480E0DF91CF911F910F91FF90EF9099
:10149000089541155105B1F07B01EC010C811D81CE
:1014A000040F151FB8010E94100A882351F32881E8
:1014B00039818C819D81B701820F931F0E94BF17D4
:1014C0001D830C8381E0DECFCF93DF93EC0143E0FB
:1014D00050E067E471E00E94380A811103C0CE0138
:1014E0000E94F609CE01DF91CF910895CF93DF934B
:1014F000EC01FB0144815581608171810E94380AB1
:10150000811103C0CE010E94F609CE01DF91CF9177
:101510000895EF92FF920F931F93CF93DF93EC0107
:101520007B018A01BA010E94100A81110BC0CE0111
:101530000E94F609CE01DF91CF911F910F91FF908C
:10154000EF9008951D830C83B701888199810E94D3
:10155000BF17F0CFEF92FF920F931F93CF93DF93BC
:10156000CDB7DEB762970FB6F894DEBF0FBECDBF22
:101570008C01CB01F8011182108213821282158234
:1015800014824AE09E012F5F3F4F7901B9010E940A
:10159000DF14F70101900020E9F73197AF014E19F0
:1015A0005F09B701C8010E94890A62960FB6F894D4
:1015B000DEBF0FBECDBFDF91CF911F910F91FF9086
:1015C000EF900895AF92BF92CF92DF92EF92FF9289
:1015D0000F931F93CF93DF9300D0CDB7DEB7009763
:1015E000E1F06B018C010E94D6145C01F12CE12C1E
:1015F000EA14FB0494F4F801EE0DFF1DE491E98375
:101600001A8241E050E0BE016F5F7F4FC6010E9429
:10161000380A8FEFE81AF80AEBCF0F900F90DF919E
:10162000CF911F910F91FF90EF90DF90CF90BF90DF
:10163000AF9008950F931F93CF93DF9300D000D006
:1016400000D0CDB7DEB78C011A8219821C821B82B2
:101650001E821D8250E040E066E471E0CE010196FA
:101660000E94890ABE016F5F7F4FC8010E94E20A93
:1016700060E080E00E94A3076BE471E086E196E001
:101680000E94BC096D817E8184E190E00E94BA15C0
:10169000862F61E08F5F0E94A307BE016F5F7F4FBF
:1016A00086E196E00E94E60262E080E00E94A307E5
:1016B0006BE471E086E196E00E94BC0963E084E09F
:1016C0000E94A30741E06FE786E196E00E9466076B
:1016D00061E671E086E196E00E94BC0941E06EE7B8
:1016E00086E196E00E94660760E671E086E196E09A
:1016F0000E94BC0963E671E086E196E00E94BC09A5
:10170000CE0101960E94080A26960FB6F894DEBF15
:101710000FBECDBFDF91CF911F910F9108951F9202
:101720000F920FB60F9211242F933F934F935F9315
:101730006F937F938F939F93AF93BF93EF93FF9399
:101740008091B900887F803609F44AC0F0F588326C
:1017500009F4A7C018F5803109F49BC0B8F48823B8
:1017600009F4F9C0883009F494C0FF91EF91BF915A
:10177000AF919F918F917F916F915F914F913F9129
:101780002F910F900FBE0F901F901895883109F47C
:1017900088C0803251F780935B0214C0803409F412
:1017A0009DC040F48033B9F38833F9F680935B022F
:1017B00085ECB0C0803509F485C0883509F496C041
:1017C000883499F60E94BE09D0CF883909F48CC0BC
:1017D00038F5883729F050F4883611F0803729F62B
:1017E00083E080935C0210925A0257C0883809F453
:1017F0007BC0803919F0803809F0B7CF80915A0248
:10180000803208F071C0E0915A0281E08E0F80931F
:101810005A028091BB00F0E0E65CFD4F80833DC042
:10182000803B39F0E0F4803A09F479C0883A09F055
:101830009CCF84E080935C021092370210923602B3
:10184000E0913402F09135020995809136028111C0
:101850000FC081E0809336021092140209C0803CD0
:1018600009F4A6CF883C09F4A3CF883B09F07DCFCB
:10187000E091370281E08E0F80933702F0E0EC5E5A
:10188000FD4F80818093BB0090913702809136029A
:1018900029C0809181028093BB0085EC8093BC00BD
:1018A00064CF9091800280917F02981758F5E09163
:1018B000800281E08E0F80938002F0E0E15AFD4FBC
:1018C0008081E9CFE091800281E08E0F80938002D9
:1018D0008091BB00F0E0E15AFD4F8083909180023F
:1018E00080917F029817C8F285E8D8CFE0918002F6
:1018F00081E08E0F809380028091BB00F0E0E15A7E
:10190000FD4F808380915E0281115CCF81E08093E6
:101910005D0284EA8093BC0010925C0226CF85ECC5
:101920008093BC0010925C0280915A02803230F4A5
:10193000E0915A02F0E0E65CFD4F108260915A029D
:1019400070E0E0913802F09139028AE392E0099563
:1019500010925A020ACF10925B0234CF1F920F925C
:101960000FB60F9211242F933F938F939F93AF93B2
:10197000BF938091C1019091C201A091C301B09128
:10198000C4013091C00123E0230F2D3758F5019693
:10199000A11DB11D2093C0018093C1019093C2018C
:1019A000A093C301B093C4018091C5019091C60179
:1019B000A091C701B091C8010196A11DB11D8093EE
:1019C000C5019093C601A093C701B093C801BF9110
:1019D000AF919F918F913F912F910F900FBE0F90DC
:1019E0001F90189526E8230F0296A11DB11DD2CF96
:1019F0001F920F920FB60F9211242F933F934F9384
:101A00005F936F937F938F939F93AF93BF93EF9366
:101A1000FF93E0910201F09103010995FF91EF918D
:101A2000BF91AF919F918F917F916F915F914F91F6
:101A30003F912F910F900FBE0F901F9018951F92FE
:101A40000F920FB60F9211242F933F934F935F93F2
:101A50006F937F938F939F93AF93BF93EF93FF9376
:101A6000E0910001F09101010995FF91EF91BF9183
:101A7000AF919F918F917F916F915F914F913F9126
:101A80002F910F900FBE0F901F9018951F920F92DD
:101A90000FB60F9211242F933F934F935F936F9341
:101AA0007F938F939F93AF93BF93EF93FF9386EAB8
:101AB00092E00E947203FF91EF91BF91AF919F91CD
:101AC0008F917F916F915F914F913F912F910F90E7
:101AD0000FBE0F901F9018951F920F920FB60F9286
:101AE00011242F938F939F93EF93FF93E091B6026E
:101AF000F091B7028081E091BC02F091BD0282FDBD
:101B00001BC090818091BF028F5F8F732091C002B4
:101B1000821741F0E091BF02F0E0EA55FD4F958F4A
:101B20008093BF02FF91EF919F918F912F910F9022
:101B30000FBE0F901F9018958081F4CF1F920F92C7
:101B40000FB60F9211242F933F934F935F936F9390
:101B50007F938F939F93AF93BF93CF93DF93EF9335
:101B6000FF938091B201C0916703D0E087FF24C04A
:101B700010928500109284008091B2018F5F809353
:101B8000B2018091B201082E000C990B8C179D07B1
:101B900024F48091B2018C30C4F180918400909142
:101BA0008500049680349C4908F47AC080918400B2
:101BB00090918500049676C08091B201082E000CA9
:101BC000990B8C179D07C4F6E091B2018E2FEE0F92
:101BD000990BFC01EE0FFF1FE80FF91FED5BFC4FA7
:101BE000808186FFC9CFE091B2018E2FEE0F990B55
:101BF000FC01EE0FFF1FE80FF91FED5BFC4F80812A
:101C000060E08F730E94CB01B7CF209184003091A8
:101C10008500E091B2018E2FEE0F990BFC01EE0FC3
:101C2000FF1FE80FF91FED5BFC4F81819281820F4E
:101C3000931F9093890080938800E091B2018E2FCA
:101C4000EE0F990BFC01EE0FFF1FE80FF91FED5B84
:101C5000FC4F808186FF11C0E091B2018E2FEE0F04
:101C6000990BFC01EE0FFF1FE80FF91FED5BFC4F16
:101C7000808161E08F730E94CB01FF91EF91DF9132
:101C8000CF91BF91AF919F918F917F916F915F9114
:101C90004F913F912F910F900FBE0F901F9018956D
:101CA00080E49CE990938900809388008FEF809373
:101CB000B201E3CFCF92DF92EF92FF920F931F9387
:101CC000E82FF92F05C0015011092109310961F1EF
:101CD000908196239417B9F305C001501109210989
:101CE000310911F1908196239413F7CFC12CD12C97
:101CF000E12CF12C0AC08FEFC81AD80AE80AF80ABA
:101D00000C151D052E053F0579F08081862384176B
:101D100091F36C2D7D2D8E2D9F2D1F910F91FF9096
:101D2000EF90DF90CF90089560E070E080E090E069
:101D30001F910F91FF90EF90DF90CF900895FC01DD
:101D4000862F22E330E03383228320E931E035839C
:101D5000248320E233E03783268313861286158698
:101D6000148617861686118A108A138A128A158A93
:101D7000148A178A168A118E108E138E128E158E63
:101D8000148E178E168E11A210A213A212A215A2E3
:101D900014A211A610A613A612A615A614A617A67D
:101DA00016A611AA10AA21E030E031AF20AF60835F
:101DB00071833187208760E00C94380210929D0275
:101DC00010929C0288EE93E0A0E0B0E080939E0227
:101DD00090939F02A093A002B093A10228E131E06A
:101DE00030939B0220939A021092A9021092A802AB
:101DF0008093AA029093AB02A093AC02B093AD0281
:101E00008AE291E09093A7028093A60285EC90E08D
:101E10009093B3028093B20284EC90E09093B50269
:101E20008093B40280EC90E09093B7028093B60266
:101E300081EC90E09093B9028093B80282EC90E03C
:101E40009093BB028093BA0286EC90E09093BD021F
:101E50008093BC021092BF021092C0021092C10285
:101E60001092C20210921906109218068CE391E0AB
:101E7000909317068093160687E280931A0684E1F2
:101E800080931E0684E080931F061092200688E04F
:101E9000809321066CE070E08CED95E00E949F0E2F
:101EA00062E070E082EA95E00E949F0E6AE070E0D6
:101EB00088E695E00E949F0EEEE6F3E086E491E06E
:101EC00091838083138212821482359625E0E23654
:101ED000F207B1F710926505109264051092630540
:101EE0001092620510926705109266058091670353
:101EF0008C3048F591E0980F9093670380936B03C3
:101F000090E0FC01EE0FFF1FE80FF91FED5BFC4FA7
:101F100088EB9BE092838183809167038C30B8F4D7
:101F200091E0980F909367038093680390E0FC0121
:101F3000EE0FFF1FE80FF91FED5BFC4F88EB9BE0F6
:101F40009283818308958FEF80936B03E5CF8FEFAA
:101F5000809368030895CF93DF93CDB7DEB7AA9738
:101F60000FB6F894DEBF0FBECDBF789484B5826003
:101F700084BD84B5816084BD85B5826085BD85B52D
:101F8000816085BD80916E00816080936E001092AB
:101F90008100809181008260809381008091810026
:101FA00081608093810080918000816080938000B7
:101FB0008091B10084608093B1008091B000816015
:101FC0008093B00080917A00846080937A00809141
:101FD0007A00826080937A0080917A008160809399
:101FE0007A0080917A00806880937A001092C10014
:101FF00061E084E00E94380261E085E00E943802DE
:1020000061E086E00E94380261E087E00E943802C9
:1020100060E088E00E94380260E08AE00E943802B6
:1020200060E082E00E94380260E08CE00E943802AA
:1020300069E070E08BE693E00E94B30662E370E033
:102040008BE693E00E9450066BE070E088E693E038
:102050000E94B30666E470E088E693E00E945006B2
:1020600061E084E00E94CB0160E085E00E94CB014A
:1020700010920B0210920A0210920D0210920C02A2
:102080000E94F9018AE191E0909335028093340235
:102090008BE191E0909339028093380210921B06F5
:1020A00080911F06823018F098E090931B06909163
:1020B0002006992339F0813029F480911B06846031
:1020C00080931B0662E370E080E090E00E9499023A
:1020D0006091210686E196E00E94650568EE73E056
:1020E00080E090E00E94990260E386E196E00E9421
:1020F0004D070BE416E4C8010197F1F760E386E1B0
:1021000096E00E944D07C8010197F1F760E386E170
:1021100096E00E944D0783E592E00197F1F760E2B7
:1021200086E196E00E944D0760911B06606240E0E8
:1021300086E196E00E94660784E080931C0640E0FA
:102140006CE086E196E00E9466070E947D0782E0CF
:1021500080931D0640E066E086E196E00E946607F7
:1021600040E062E086E196E00E9466078BE39FE133
:102170000197F1F788E08093210660E086E196E020
:102180000E9465050E947D0760E080E00E94A30731
:102190006BE471E086E196E00E94BC0961E080E0BA
:1021A0000E94A3076EE671E086E196E00E94BC09FA
:1021B00062E080E00E94A3076BE471E086E196E0B4
:1021C0000E94BC096CED75E080E090E00E949902ED
:1021D0000E947D0750E040E060E970E090E080E020
:1021E0000E94CF0041E050E067E870E090E080E0BE
:1021F0000E94CF0042E050E067E770E090E080E0AE
:102200000E94CF0043E050E068E670E081E090E09B
:102210000E94CF001092650510926405C0906E0375
:10222000D0906F0381E891E00E940F080EE613E062
:10223000F12CE12C8091660590916705E816F9066E
:102240000CF051C0B12CA12CD80114968C918A1598
:102250001B0459F054F060E671E086EA92E00E94B7
:10226000BC09BFEFAB1ABB0AEFCFF801A080B18069
:102270001A8219821C821B821E821D8250E040E05D
:1022800066E471E0CE0101960E94890ABE016F5F8B
:102290007F4FC5010E94E20ABE016F5F7F4F86EA51
:1022A00092E00E94E60267E871E086EA92E00E940E
:1022B000BC09D80112966D917C91072E000C880BF9
:1022C000990B0E94220864E471E086EA92E00E9481
:1022D0000008CE0101960E94080ABFEFEB1AFB0A24
:1022E0000B5F1F4FA7CFC6010E941A0B87ED92E02C
:1022F0009093ED058093EC0580911406909115065E
:102300008230910514F482E090E09093150680935A
:10231000140688E897E09093E7058093E6058EED34
:1023200092E09093F9058093F80581E997E0909306
:10233000AD058093AC058AE997E09093730580938F
:1023400072058EE297E090930101809300018091E5
:1023500069008C7F816080936900E89AE091B60201
:10236000F091B70282E08083E091B202F091B30273
:102370001082E091B402F091B5028FEC808310924C
:10238000BE02E091BA02F091BB0286E08083E09148
:10239000B802F091B902808180618083E091B80237
:1023A000F091B902808188608083E091B802F09159
:1023B000B902808180688083E091B802F091B9020F
:1023C00080818F7D80834E01EBE28E0E911C7E0119
:1023D000FFE1EF0EF11CAA24A394B12C90E0692E2A
:1023E00090E0792E8091980290919902892B09F0C2
:1023F00062C18091BE019091BF018230910509F4C4
:10240000D0C008F06EC0019709F4A1C080916405A6
:1024100090916505B5E0B89FF001B99FF00D1124CA
:10242000E259FC4F02811381808191810E941A0B35
:102430008091BE019091BF01039719F58091BD0174
:1024400081111FC00130110509F4E5C003301105E9
:1024500009F4FAC0012BA9F48091820290918302C1
:10246000892B09F4C3C06CE271E080E090E00E9427
:1024700099020E947D070E940F07B0929902A092D4
:1024800098021092BF011092BE018091BC01882376
:1024900021F00E947D071092BC0166E470E088E69E
:1024A00093E00E9450068CED95E00E94010482EAC0
:1024B00095E00E94010488E695E00E9401046AE02C
:1024C00070E080E090E00E9499026114710409F4C8
:1024D00089CF0E945E03882309F47DCF0E9400000B
:1024E0007ACF8330910531F0049709F08FCF0E94A5
:1024F000A5008CCF1092BD01809164059091650577
:1025000001962091660530916705821793070CF0BC
:102510007DCF45E0489F9001499F300D1124F9017E
:10252000E259FC4F448127593C4FD90114962C9114
:1025300030E02F5F3F4F4217130609F067CF9093AB
:1025400065058093640581E08093BD015FCF809134
:102550006405909165054091660550916705B5E069
:10256000B89FF001B99FF00D1124E259FC4F01967C
:10257000DF01841795070CF049CF19963C91199704
:102580002481321708F442CF321308C08F3F9807D6
:1025900029F0909365058093640538CF01961596D0
:1025A000E8CF4091640550916505141615060CF0AE
:1025B0002DCFCA01019765E0649F9001659F300DA2
:1025C0001124F901E359FC4F22593C4F8F3F9807E2
:1025D00009F41CCF5081D90114964C91541708F47A
:1025E00015CF35975417A9F20197F0CF0E947D07B8
:1025F00061E080E00E94A3076AE871E086E196E06E
:102600000E94BC0960ED77E080E090E00E949902B2
:102610000E947D0736CF0E947D071092BB01109269
:10262000BA011092B9011092B8011092B70110923C
:10263000B6011092B5011092B4016EEE72E080E026
:1026400090E00E9499021DCF80919802909199028A
:10265000892B09F016CF68EC70E080E090E00E94D2
:1026600099020E947D076091040170910501072E77
:10267000000C880B990B0E94220864E471E086EA42
:1026800092E00E9400080E94A108809104019091AC
:102690000501039731F40E940F07B0929902A092AE
:1026A0009802809104019091050101969093050193
:1026B00080930401E6CE60EA70E08BE693E00E942E
:1026C00050060E94CB021B012C011EA21DA218A6BF
:1026D0001FA21AA619A60E94A108009709F024C1FA
:1026E0008DA19EA101969EA38DA30E94CB0262198B
:1026F000730984099509603D77408105910558F378
:102700004DA15EA1CA0157FF02C090E080E02FA159
:1027100038A510E000E0821793071CF4C90101E01E
:1027200010E069A57AA58617970714F402E010E077
:102730004531510544F4253131052CF465317105DD
:1027400014F40FEF1FEF6E01F5E2CF0ED11CD6018E
:102750006D917D916D01072E000C880B990B0E94E5
:1027600022086EE971E086EA92E00E94BC098C14AE
:102770009D0469F786E491E00E940F080E947D079E
:102780000130110509F4E2C00230110509F4EEC070
:10279000012B09F0FBC070E060E088E693E00E9446
:1027A00050068091BA019091BB0101969093BB01B4
:1027B0008093BA016091B4017091B501CE01019688
:1027C0000E94AA0A6091B6017091B701CE010796E6
:1027D0000E94AA0A6091B8017091B901CE010D96CC
:1027E0000E94AA0A6091BA017091BB01CE0149967C
:1027F0000E94AA0A1C8A1B8A1E8A1D8A188E1F8A9A
:10280000698D7A8D6115710531F04D8D5E8DCE012A
:1028100043960E94890ACE0143960E94640ABE0133
:10282000635F7F4F0E94760A0E94640ABE01695F5F
:102830007F4F0E94760A0E94640ABE016F5F7F4F3D
:102840000E94760A18A21F8E1AA219A21CA21BA20D
:102850008E159F0559F0FC0160817181611571052C
:1028600029F044815581C7010E94890ACE0143960F
:102870000E94080ACE0149960E94080ACE010D96D0
:102880000E94080ACE0107960E94080ACE0101960E
:102890000E94080A1A8219821C821B821E821D82D3
:1028A0004FE050E062EA71E0CE0101960E94890A91
:1028B00060E080E00E94A3076BE471E086E196E0AF
:1028C0000E94BC0961E083E00E94A307B70186E192
:1028D00096E00E94E60262E080E00E94A3076BE4BB
:1028E00071E086E196E00E94BC0963E083E00E940B
:1028F000A307BE016F5F7F4F86E196E00E94E6026C
:1029000062E370E08BE693E00E94500660ED77E0B2
:1029100080E090E00E949902CE0101960E94080A90
:10292000C7010E94080ABFCD8130910531F48FA103
:1029300098A5019698A78FA3D8CE029709F0D5CE77
:1029400089A59AA501969AA789A7CFCE67E170E0DD
:1029500088E693E00E9450068091B8019091B901F9
:1029600001969093B9018093B80124CF6EE270E094
:1029700088E693E00E9450068091B6019091B701DD
:1029800001969093B7018093B60114CF66E470E08E
:1029900088E693E00E9450068091B4019091B501C1
:1029A00001969093B5018093B40104CFFC0105908A
:1029B0000020E9F7809590958E0F9F1F0895BB2703
:1029C0004A3031F4992322F4BDE2909581959F4FCE
:1029D0000C94EB14BB27FB015527AA27880F991FDE
:1029E000AA1FA41710F0A41B83955051B9F7A05D3E
:1029F000AA3308F0A95DA193009779F7B111B193BB
:102A00001192CB010C940415DC01FC01672F71912C
:102A10007723E1F7329704C07C916D9370836291C4
:102A2000AE17BF07C8F30895052E97FB1EF4009458
:102A30000E942B1557FD07D00E947D1507FC03D07F
:102A40004EF40C942B1550954095309521953F4FA1
:102A50004F4F5F4F089590958095709561957F4F8A
:102A60008F4F9F4F08950E949F15A59F900DB49F73
:102A7000900DA49F800D911D11240895B7FF0C9413
:102A800033150E943315821B930B08952F923F92AA
:102A90004F925F926F927F928F929F92AF92BF926E
:102AA000CF92DF92EF92FF920F931F93CF93DF931A
:102AB000CDB7DEB7CA1BDB0B0FB6F894DEBF0FBE77
:102AC000CDBF09942A88398848885F846E847D84C4
:102AD0008C849B84AA84B984C884DF80EE80FD80C6
:102AE0000C811B81AA81B981CE0FD11D0FB6F8943C
:102AF000DEBF0FBECDBFED010895A1E21A2EAA1BC5
:102B0000BB1BFD010DC0AA1FBB1FEE1FFF1FA2179D
:102B1000B307E407F50720F0A21BB30BE40BF50B9A
:102B2000661F771F881F991F1A9469F76095709523
:102B3000809590959B01AC01BD01CF010895A29FA6
:102B4000B001B39FC001A39F700D811D1124911D81
:102B5000B29F700D811D1124911D0895991B79E07C
:102B600004C0991F961708F0961B881F7A95C9F71D
:102B700080950895AA1BBB1B51E107C0AA1FBB1F6C
:102B8000A617B70710F0A61BB70B881F991F5A95F9
:102B9000A9F780959095BC01CD010895EE0FFF1F18
:102BA0000590F491E02D09940F931F93CF93DF9339
:102BB0008230910510F482E090E0E0912406F091DB
:102BC000250630E020E0B0E0A0E0309799F4211530
:102BD000310509F44AC0281B390B24303105D8F5DA
:102BE0008A819B816115710589F1FB019383828341
:102BF000FE0111C04081518102811381481759079C
:102C0000E0F04817590799F4109761F012960C9369
:102C1000129713961C933296CF01DF91CF911F919B
:102C20000F9108950093240610932506F4CF2115E3
:102C3000310551F04217530738F0A901DB019A0121
:102C4000BD01DF01F801C1CFEF01F9CF9093250657
:102C500080932406CDCFFE01E20FF31F8193919361
:102C60002250310939832883D7CF20912206309111
:102C70002306232B41F42091080130910901309360
:102C80002306209322062091060130910701211589
:102C9000310541F42DB73EB740910A0150910B0127
:102CA000241B350BE0912206F0912306E217F3076F
:102CB000A0F42E1B3F0B2817390778F0AC014E5FAC
:102CC0005F4F2417350748F04E0F5F1F50932306C0
:102CD00040932206819391939FCFF0E0E0E09CCF58
:102CE000CF93DF930097E9F0FC01329713821282B1
:102CF000A0912406B0912506ED0130E020E0109768
:102D0000A1F420813181820F931F209122063091FE
:102D100023062817390709F061C0F0932306E093D2
:102D20002206DF91CF910895EA01CE17DF07E8F57B
:102D30004A815B819E0141155105B1F7E901FB8391
:102D4000EA8349915991C40FD51FEC17FD0761F42F
:102D5000808191810296840F951FE9019983888370
:102D6000828193819B838A83F0E0E0E012968D91CB
:102D70009C9113970097B9F52D913C911197CD0136
:102D80000296820F931F2091220630912306281766
:102D9000390739F6309751F510922506109224061E
:102DA000B0932306A0932206BCCFD383C283408175
:102DB0005181840F951FC817D90761F44E5F5F4F8B
:102DC00088819981480F591F518340838A819B8153
:102DD000938382832115310509F0B0CFF093250646
:102DE000E09324069ECFFD01DC01C0CF1382128246
:102DF000D7CFB0E0A0E0EFEFF6E10C9448158C01DE
:102E0000009751F4CB010E94D4158C01C801CDB7B5
:102E1000DEB7E0E10C946415FC01E60FF71F9C019E
:102E200022503109E217F30708F49DC0D901CD9172
:102E3000DC911197C617D70798F0C530D10530F34C
:102E4000CE0104978617970708F3C61BD70B229766
:102E5000C193D1936D937C93CF010E947016D6CF0E
:102E60005B01AC1ABD0A4C018C0E9D1EA09124067C
:102E7000B0912506512C412CF12CE12C109731F505
:102E800080912206909123068815990509F05CC06F
:102E90004616570608F058C0809106019091070128
:102EA000009741F48DB79EB740910A0150910B01F4
:102EB000841B950BE817F90708F055C0F09323061B
:102EC000E0932206F90171836083A0CF8D919C91DC
:102ED000119712966C90129713967C901397A815E1
:102EE000B90559F56C0142E0C40ED11CCA14DB04CB
:102EF00020F1AC014A195B09DA011296159780F0AE
:102F00006282738251834083D9016D937C93E11473
:102F1000F10471F0D7011396FC93EE93129776CFDC
:102F200022968C0F9D1FF90191838083F301EFCFCF
:102F3000F0932506E093240669CF4816590608F455
:102F40002C017D01D3019ACFCB010E94D4157C01C5
:102F5000009749F0AE01B8010E94B617C8010E945F
:102F60007016870153CF10E000E050CFFB01DC0169
:102F700002C001900D9241505040D8F70895FB01D6
:102F8000DC0101900D920020E1F70895F894FFCF45
:102F9000E502E50201000000260680000000400076
:102FA0001400540000000000730146014D061C018E
:102FB0003F012C011D01000000009403F4022103D5
:102FC000E10352033003440300000000D707F4027A
:102FD0004D064C060D0A00207C20002D2D2D2D2D98
:102FE0002D2D2D2D2D2D2D2D2D2D2D2D2D2D2D003E
:102FF000202000456E7465722F457869740020208A
:1030000041726475696E6F205472696469636B61A3
:10301000006D656E753A002C20005072617A646E06
:103020006520706F6C652062617265762100202DCD
:103030002000312E2020322E2020332E20204E4FF3
:023040004B0043
:00000001FF
